:020000040800F2
:10000000000002202D7C00088901000899010008E9
:10001000A1010008A9010008B101000800000000CA
:10002000000000000000000000000000ED75000866
:10003000B901000800000000257800088978000850
:10004000717C0008717C0008717C0008717C0008DC
:10005000717C0008717C0008717C0008717C0008CC
:10006000717C0008717C0008717C0008C9010008DF
:10007000717C0008717C0008717C0008717C0008AC
:10008000717C0008717C0008717C0008717C00089C
:10009000717C0008717C0008717C0008717C00088C
:1000A000717C0008717C0008717C0008717C00087C
:1000B000717C0008717C0008717C0008717C00086C
:1000C000717C0008717C0008717C0008717C00085C
:1000D000717C0008717C0008717C0008717C00084C
:1000E000717C0008717C0008717C0008717C00083C
:1000F000717C0008717C0008717C0008717C00082C
:10010000717C0008717C0008717C0008717C00081B
:10011000717C0008717C0008717C0008717C00080B
:10012000717C0008717C0008717C0008717C0008FB
:10013000717C0008717C0008717C0008717C0008EB
:10014000717C0008717C0008717C0008717C0008DB
:10015000717C0008717C0008717C0008717C0008CB
:10016000717C0008717C0008717C0008717C0008BB
:10017000717C0008717C0008717C0008717C0008AB
:08018000717C0008717C00088D
:1001880080B400AF00BFBD465DF8047B704700BF78
:1001980080B400AFFEE700BF80B400AFFEE700BF49
:1001A80080B400AFFEE700BF80B400AFFEE700BF39
:1001B80080B400AF00BFBD465DF8047B704700BF48
:1001C80080B582B000AF5449544803F0D5FF0346C8
:1001D800002B00F09C805049504804F025F8462137
:1001E8004F4803F023FA00BF80214D4803F00EFC6E
:1001F8000346002BF8D0B921494803F017FA00BF8D
:100208008021474803F002FC0346002BF8D0682100
:10021800434803F00BFA00BF8021414803F0F6FB86
:100228000346002BF8D03D4803F0C0FE38603B6819
:10023800012B2ED100237B6028E07B685B00394AC4
:1002480032F813301B0A9BB21946354803F0EEF911
:1002580000BF8021324803F0D9FB0346002BF8D0B9
:100268007B685B002F4A32F81330DBB29BB2194629
:100278002B4803F0DBF900BF8021294803F0C6FBB7
:100288000346002BF8D07B6801337B607B680F2B1B
:10029800D3D93B68002B2ED100237B6028E07B68F4
:1002A8005B00214A32F813301B0A9BB219461C48DE
:1002B80003F0BCF900BF8021194803F0A7FB0346EF
:1002C800002BF8D07B685B00174A32F81330DBB29A
:1002D8009BB21946124803F0A9F900BF80211048C3
:1002E80003F094FB0346002BF8D07B6801337B6056
:1002F8007B680F2BD3D91621094803F097F900BF63
:100308008021074803F082FB0346002BF8D000BF8A
:100318000837BD4680BD00BF208000101060024035
:1003280000440040D0090020100A002080B500AF2A
:10033800164A164BD3F8883043F47003C2F8883055
:10034800134A134B1B6843F001031360104B002240
:100358009A600F4A0E4B1B6823F0847323F4803392
:1003680013600B4B0B4A5A60094A094B1B6823F46C
:1003780080231360064B0022DA6000F08BF8034BF1
:100388004FF000629A6000BF80BD00BF00ED00E042
:10039800003802401030002480B487B000AF00233A
:1003A8003B6100237B610223FB600023BB600223C7
:1003B8007B60334B9B6803F00C033B613B69042B68
:1003C80007D0082B09D0002B3FD12E4B2E4A1A609C
:1003D8003FE02C4B2D4A1A603BE0294B5B6803F445
:1003E80080039B0DBB60264B5B6803F03F037B607B
:1003F800BB68002B0DD0254A7B68B2FBF3F2204B7B
:10040800596847F6C0730B409B0903FB02F37B61F5
:100418000CE01D4A7B68B2FBF3F2194B596847F6AA
:10042800C0730B409B0903FB02F37B61144B5B68B1
:1004380003F440331B0C01335B00FB607A69FB68F3
:10044800B2FBF3F30F4A136003E00E4B0E4A1A6037
:1004580000BF0B4B9B6803F0F0031B090C4AD35CED
:10046800DBB23B61074B1A683B6922FA03F3054A82
:10047800136000BF1C37BD465DF8047B704700BFA2
:1004880000380240000000200024F40040787D017C
:100498000400002080B483B000AF00237B600023F9
:1004A8003B60364A354B1B6843F480331360334B4B
:1004B8001B6803F400333B607B6801337B603B6857
:1004C800002B03D17B68B3F5A04FF0D12B4B1B68F1
:1004D80003F40033002B02D001233B6001E000232A
:1004E8003B603B68012B42D1244A244B1B6C43F0F0
:1004F80080531364224A224B1B6843F44043136021
:100508001E4A1E4B9B6893601C4A1C4B9B6843F415
:1005180000439360194A194B9B6843F4A0539360B6
:10052800164B184A5A60154A144B1B6843F08073DF
:10053800136000BF114B1B6803F00073002BF9D048
:10054800114B40F205721A600C4A0C4B9B6823F061
:1005580003039360094A094B9B6843F002039360C5
:1005680000BF064B9B6803F00C03082BF9D100BFB2
:100578000C37BD465DF8047B704700BF0038024069
:1005880000700040195A4007003C024080B500AF97
:1005980000F092F801220021342000F0BBFB0D226C
:1005A8000121342000F0B6FB4FF47A71A82000F046
:1005B80045F81D220121342000F0ACFB1422022151
:1005C800342000F0A7FB0A21A82000F037F81522F4
:1005D8000221342000F09EFB10220421342000F078
:1005E80099FB00220621342000F094FB0A220721FF
:1005F800342000F08FFB03222C21342000F08AFBEA
:1006080023222D21342000F085FB4FF4A0722F21E6
:10061800342000F07FFB00F03DFC0549054800F060
:10062800C3FC00F015FD0121034803F0FBFBFEE7C6
:10063800100A0020D00900201060024080B487B062
:1006480000AF03463960FB711A4A1A4B1B6823F046
:1006580004031360FB79DB08DBB27B617B694FF431
:100668007A7202FB03F33B6112493B683A6902FB69
:1006780003F34B600F4B00229A600E4B01221A6065
:100688000C4B1B68FB60FB6803F00103002B04D0D4
:10069800FB6803F48033002BF2D0064B00221A606B
:1006A800044B00229A6000BF1C37BD465DF8047BEE
:1006B800704700BF10E000E080B586B000AF0121B0
:1006C8004FF4003001F03CFE0121012001F0D8FD7B
:1006D80007220221154803F0FBFF04233B61022394
:1006E8003B750023BB750023FB7503237B7507F15E
:1006F800100319460D4803F077FE0D4B3B600023AD
:10070800BB800023FB8000233B810023BB8108239F
:100718007B813B461946074802F0ECFD012105485C
:1007280002F004FF00BF1837BD4680BD000002403C
:1007380080841E000044004080B485B000AF78601B
:100748000B4B1B68002B02D1094B0A4A1A60084B55
:100758001B68FB60064B1A687B681344044A1360E5
:10076800FB6818461437BD465DF8047B704700BF28
:100778006C080020980A002080B483B000AF78602D
:1007880039604FF0FF3318460C37BD465DF8047BDF
:10079800704700BF80B483B000AF78604FF0FF337C
:1007A80018460C37BD465DF8047B704780B483B0AB
:1007B80000AF786039603B684FF400525A600023FC
:1007C80018460C37BD465DF8047B704780B483B08B
:1007D80000AF7860012318460C37BD465DF8047BEE
:1007E800704700BF80B485B000AFF860B9607A6028
:1007F800002318461437BD465DF8047B704700BFD8
:1008080080B485B000AFF860B9607A6000231846FC
:100818001437BD465DF8047B704700BF80B400AF55
:10082800FEE700BF80B586B000AFF860B9607A60B7
:100838000023FB8213E0BB685A1CBA601B789BB28A
:1008480019460B4802F0F2FE00BF4021084803F0A9
:10085800DDF80346002BF8D0FB8A0133FB82FA8AC5
:100868007B689A42E7DB7B6818461837BD4680BD2F
:100878000044004080B586B000AF0121022001F09D
:10088800FFFC0121022001F0FBFC01214FF40010C4
:1008980001F056FD01214FF4001001F0F1FC4FF476
:1008A80080733B6002233B7102237B710123BB7180
:1008B8000123FB713B4619461A4803F095FD4FF496
:1008C80000733B603B461946164803F08DFD042231
:1008D8000821144803F0FCFE04220921114803F002
:1008E800F7FE114BBB600023BB814BF6FF73FB8106
:1008F80010233B824FF480637B824FF48043BB829A
:1009080007F108031946094801F08EFF012107483D
:1009180002F08CF80F21054802F0A8F800BF18373C
:10092800BD4680BD00040240A0860100005400407E
:1009380080B598B000AF78600B46FB7001210220AB
:1009480001F09EFC0121022001F09AFC01214FF4E4
:10095800001001F0F5FC01214FF4001001F090FCAB
:100968004FF48073BB64022387F84C30022387F866
:100978004D30012387F84E30012387F84F3007F1B7
:1009880048031946364803F02FFD4FF40073BB6443
:1009980007F148031946324803F026FD04220821CE
:1009A8002F4803F095FE042209212D4803F090FEFC
:1009B8002C4B3B650023A7F854304BF6FF73A7F880
:1009C80056303223A7F858304FF48063A7F85A30CE
:1009D8004FF48043A7F85C3007F1500319462248CA
:1009E80001F022FF0021214803F01CFA1F4803F000
:1009F800B5F84FF00073FB601D4B3B6100233B6271
:100A08004FF480637B620023BB620023FB620023F8
:100A18003B634FF440337B630423BB630323FB63D3
:100A280000233B6400237B644023BB617B687B61BC
:100A3800FB78FB610D4803F091F807F10C031946A8
:100A48000A4803F05FF90121074801F0EFFF0F2181
:100A5800054802F00BF800BF6037BD4680BD00BFF7
:100A680000040240A086010000540040A06002403B
:100A78001054004080B592B000AF78600B46FB7010
:100A880000211A4803F0CEF9184803F067F84FF030
:100A98000073FB60164B3B6100233B624FF480639D
:100AA8007B620023BB620023FB6200233B634FF49D
:100AB80040337B630423BB630323FB6300233B6452
:100AC80000237B644023BB617B687B61FB78FB610F
:100AD800064803F043F807F10C031946034803F0EE
:100AE80011F900BF4837BD4680BD00BFA060024075
:100AF8001054004080B582B000AF78607B681B78E6
:100B0800072B00F2AD8001A252F823F0350B000844
:100B1800590B00089B0B0008DF0B00080F0C00089E
:100B2800690C0008690C0008690C00087B685B68A0
:100B38001A687B685B681B7919461046FFF79AFFAD
:100B480001214A4801F0B2FF7B6801221A7088E04F
:100B58007B685B78012B10D17B681B7A00221946D1
:100B6800424801F0E3FF01224FF400713F4802F0D0
:100B78002DFA7B6802221A7073E07B685B78042B7D
:100B880003D17B6805221A706BE07B6806221A7015
:100B980067E07B685B78022B11D10121334802F0B2
:100BA800BDF90121324803F03DF901224FF40071EB
:100BB8002E4802F00BFA7B6803221A7051E07B681A
:100BC8005B78042B03D17B6805221A7049E07B68A7
:100BD80006221A7045E07B685B78052B07D1002157
:100BE800224802F09BF97B6804221A7039E07B687E
:100BF8005B78042B03D17B6805221A7031E07B688F
:100C080006221A702DE07B685B78032B1CD101212A
:100C1800164801F06BFF0021154803F003F900BFE7
:100C2800134803F0DBF90346002BF9D111491048AA
:100C380003F03AFA01224FF400710C4802F0C6F9A9
:100C48007B6807221A700CE07B685B78042B03D161
:100C58007B6805221A7004E07B6806221A7000E09F
:100C680000BF00BF0837BD4680BD00BF005400402C
:100C7800A060024000003D2080B58AB000AF7860D7
:100C88007B683B6200237B6237E000233B740023D0
:100C98007B743B6A1A687B6ADB0013447B613423EC
:100CA8003B7600220421052003F0C4FD0246184BC0
:100CB8001A601CE007F110031846FFF71BFF144BDE
:100CC800186807F10C010023642204F0B3F8F861F6
:100CD800FB69012B09D1FB68002B03D0FB68DBB251
:100CE8007B7404E004237B7401E004237B743B7C65
:100CF800072BDFD17B6A01337B623B6A1B791A467B
:100D08007B6A9A42C1DC00BF2837BD4680BD00BF60
:100D1800500A002080B584B000AF0346FB710B4633
:100D2800BB711346BB80BB795B00DAB2BB881B0A78
:100D38009BB2DBB21343DBB2DBB23B73BB88DBB2E3
:100D48007B7307F10C0302211846FFF7F1FD01211F
:100D58002A4801F04BFE0121284801F0A7FE00BFF8
:100D68002749264802F056F90346002BF8D0FB79AC
:100D780000221946214801F0D9FE00BF21491F4829
:100D880002F048F90346002BF8D001211B4802F075
:100D9800C5F801211C4803F045F800BF1B491A4853
:100DA80003F046F90346002BF8D00021134802F05F
:100DB800B5F800BF1649114802F07EF90346002B2A
:100DC800F8D001210D4801F091FE00210E4803F0F2
:100DD80029F800BF0C4803F001F90346002BF9D1AC
:100DE8000C49094803F060F900214FF4001001F0A4
:100DF80047FA00BF1037BD4680BD00BF0054004011
:100E08000100030082000700A060024000002020CB
:100E18000400001000003D2080B483B000AF78606B
:100E2800174B02221A70164B0D225A70144B0422CB
:100E38009A70134B0122DA70114B06221A71104B6B
:100E480040225A710F4B0E4A1A600E4B02221A7139
:100E58000C4B0D4A9A600B4B02221A73094B0B4A32
:100E68001A61084B02221A75094B064A1A60084B88
:100E780003221A7100BF0C37BD465DF8047B70472A
:100E8800A8090020B8090020AA090020AC09002000
:100E9800B009002080B586B000AF01214FF40040B2
:100EA80001F04EFA002001F031F9012000F02AFF8C
:100EB8000121072001F0E4F906220F21364803F04A
:100EC80007FC06220321354803F002FC062205210F
:100ED800324803F0FDFB06220721314803F0F8FBF6
:100EE80006220B212E4803F0F3FB02233B75022355
:100EF8007B750023BB750023FB754FF400433B61F2
:100F080007F110031946244803F06EFA08233B61E1
:100F180007F110031946214803F066FA20233B61C4
:100F280007F1100319461D4803F05EFA80233B6160
:100F380007F1100319461A4803F056FA4FF40063F4
:100F48003B6107F110031946154803F04DFA15489F
:100F580000F05CF94FF440733B804FF4FA53BB60E8
:100F680000237B804FF40073FB800023BB810023A8
:100F7800BB803B4619460B4800F0FAF901220121D3
:100F8800084800F0CBFC0121064800F041FB00BFF7
:100F98001837BD4680BD00BF000002400004024073
:100FA80000080240003C004080B592B000AF786075
:100FB800396001214FF4001001F062F9224802F073
:100FC800CDFD00BF204803F009F80346002BF9D1F6
:100FD8000023FB601D4B3B617B687B610023BB6189
:100FE8002023FB6100233B624FF480637B624FF454
:100FF8000063BB624FF40053FB624FF480733B63A2
:101008004FF400337B630023BB630323FB6300239C
:101018003B6400237B6407F10C0319460A4802F07D
:1010280071FE01221021084803F06CF83B68002289
:101038001946054802F068FF0121034802F084FFC1
:1010480000BF4837BD4680BD106002400C3C0040E0
:1010580080B582B000AF0B233B7100237B71002366
:10106800BB710123FB713B1D184600F019F800BF46
:101078000837BD4680BD00BF80B483B000AF78603C
:10108800064A7B6843F0BF6343F40033D36000BF74
:101098000C37BD465DF8047B704700BF00ED00E0EB
:1010A80080B485B000AF78600023FB730023BB7366
:1010B8000F237B737B68DB78002B38D0274BDB68EA
:1010C800DB4303F4E0631B0AFB73FB7BC3F10403FC
:1010D800BB737A7BFB7B42FA03F37B737B685B7899
:1010E8001A46BB7B02FA03F3FB737B689A787B7B17
:1010F8001340DAB2FB7B1343FB73FB7B1B01FB73CF
:10110800174A7B681B781344FA7B83F80023144A38
:101118007B681B785B09DBB218467B681B7803F099
:101128001F03012101FA03F342F820300FE00C49B4
:101138007B681B785B09DBB218467B681B7803F079
:101148001F0301229A4000F1200341F8232000BF29
:101158001437BD465DF8047B704700BF00ED00E022
:1011680000E100E080B483B000AF786039600749DF
:101178003B6823F0604323F07F037A6813438B6056
:1011880000BF0C37BD465DF8047B704700ED00E0FA
:1011980080B483B000AF03460A46FB711346BB71A7
:1011A800BB79002B06D00A49094B1A69FB7913430E
:1011B8000B6106E00649064B1A69FB79DB431340CD
:1011C8000B6100BF0C37BD465DF8047B704700BF5C
:1011D80000ED00E080B483B000AF78607B68042B3A
:1011E80006D1094A084B1B6843F00403136005E065
:1011F800054A054B1B6823F00403136000BF0C3736
:10120800BD465DF8047B704710E000E080B582B011
:1012180000AF78607B682E4A93420AD101214FF4CF
:10122800805001F04DF900214FF4805001F048F949
:1012380049E07B68274A93420AD101214FF4804054
:1012480001F01EF900214FF4804001F019F93AE04D
:101258007B68214A93420AD101214FF4004001F0F2
:101268000FF900214FF4004001F00AF92BE07B68E8
:101278001A4A93420AD101214FF4005001F020F993
:1012880000214FF4005001F01BF91CE07B68144A60
:1012980093420AD101214FF4801001F011F9002185
:1012A8004FF4801001F00CF90DE07B680D4A934271
:1012B80009D101214FF4001001F002F900214FF487
:1012C800001001F0FDF800BF0837BD4680BD00BF23
:1012D8000030014000380040003C0040003401402C
:1012E800005001400054014080B485B000AF7860E0
:1012F80039600023FB817B681B88FB81FB8903F431
:101308004153FB813B681A883B685B8813439AB258
:101318003B689B8813439AB23B68DB8813439AB2B5
:101328003B681B8913439AB23B685B8913439AB2A3
:101338003B689B8913439AB23B68DB8913439AB293
:10134800FB891343FB817B68FA891A807B689B8B36
:101358009BB223F400639AB27B689A833B681A8A2B
:101368007B681A8200BF1437BD465DF8047B70475E
:1013780080B48BB000AF786039600023FB82022311
:10138800FB840023BB8401237B840023FB610023AF
:10139800BB6100233B610023FB600023BB607B68CB
:1013A8009B8B9BB223F47B6323F00F039AB27B6879
:1013B8009A837B6802221A847B689B8BFB823B683A
:1013C8009B68022B04D10023BB840223FB8484E0A6
:1013D8003B689B88002B02D101237B8401E0022318
:1013E8007B84564B9B6803F40003002B05D0534ABB
:1013F800524B9B6823F400039360504BD3F884202E
:1014080047F6C07313409B09C3F30803FB604B4BBB
:10141800D3F8843003F0E0431B0F03F00703BB60ED
:10142800464B5B6803F03F033B61444B5B6803F446
:101438008003002B0BD0424A3B69B2FBF3F3FA68F6
:1014480002FB03F2BB68B2FBF3F3BB610AE03D4A5F
:101458003B69B2FBF3F3FA6802FB03F2BB68B2FB29
:10146800F3F3BB613B68DB88B3F5007F0FD1BB6941
:101478001A0A13469B0013445B001A463B689B6894
:10148800B2FBF3F39BB205339BB2FB6112E07B8C9A
:101498005B011A46BB69B3FBF2F213469B00134487
:1014A8005B001A463B689B68B2FBF3F39BB20533BB
:1014B8009BB2FB61FB69244AA2FB0323DB08FB61A7
:1014C800FB699BB203F00103BB84BB8CFA69D31A96
:1014D8005B08FB84BB8C1B02BB84FB8C012B02D9F1
:1014E800FB8CFF2B03D90223FB840023BB843B68BE
:1014F800DA88BB8C13439AB2FB8C13439AB27B688D
:101508001A843B681A883B6859883B6898883B6806
:101518009B8903439BB20B439BB213439AB2FB8A4A
:1015280013439BB243F40063FB827B68FA8A9A8375
:1015380000BF2C37BD465DF8047B70470038024079
:1015480040787D010024F400CDCCCCCC80B483B0AD
:1015580000AF78607B6800221A807B6800225A807E
:101568007B6800229A807B680022DA807B680022F0
:101578001A817B6800225A817B6800229A817B68E5
:101588000022DA817B6807221A8200BF0C37BD4629
:101598005DF8047B704700BF80B483B000AF78600B
:1015A8007B6800221A807B6800225A807B680022B0
:1015B8009A807B680022DA807B6802229A607B68C6
:1015C80000229A8100BF0C37BD465DF8047B704746
:1015D80080B483B000AF78600B46FB70FB78002BBB
:1015E80008D07B681B889BB243F040039AB27B68A3
:1015F8001A8007E07B681B889BB223F040039AB2ED
:101608007B681A8000BF0C37BD465DF8047B7047C5
:1016180080B483B000AF78600B46FB70FB78002B7A
:1016280008D07B689B8B9BB243F480639AB27B683B
:101638009A8307E07B689B8B9BB223F480639AB202
:101648007B689A8300BF0C37BD465DF8047B704702
:1016580080B483B000AF78600B467B807B681B88C2
:101668009BB223F400639AB27B681A807B681B885C
:101678009AB27B8813439AB27B681A8000BF0C37F2
:10168800BD465DF8047B704780B483B000AF7860D6
:101698000B467B807B88B3F5804F08D17B681B881D
:1016A8009BB243F480439AB27B681A8007E07B6858
:1016B8001B889BB223F480439AB27B681A8000BFD0
:1016C8000C37BD465DF8047B704700BF80B483B01B
:1016D80000AF78600B467B807B884FF6FF629342B1
:1016E80008D07B681B889BB243F480739AB27B68EE
:1016F8001A8007E07B681B889BB223F480739AB238
:101708007B681A8000BF0C37BD465DF8047B7047C4
:1017180080B483B000AF78600B46FB70FB78002B79
:1017280008D07B689B889BB243F004039AB27B681D
:101738009A8007E07B689B889BB223F004039AB2E7
:101748007B689A8000BF0C37BD465DF8047B704704
:1017580080B483B000AF78600B46FB70FB78002B39
:1017680008D07B689B889BB243F010039AB27B68D1
:101778009A8007E07B689B889BB223F010039AB29B
:101788007B689A8000BF0C37BD465DF8047B7047C4
:1017980080B485B000AF786039600023BB81002336
:1017A800FB817B689B8B9BB223F47B6323F00F0345
:1017B8009AB27B689A837B6802221A847B689B8B27
:1017C800BB813B681B88B3F5007F03D03B681B884F
:1017D800002B03D14FF48073FB810BE03B681B881F
:1017E800B3F5407F04D03B681B88B3F5807F01D1F7
:1017F8000023FB813B685A883B6899883B689B8932
:101808000B439BB213439AB2FB8913439AB2BB8929
:1018180013439BB243F40063BB817B68BA899A8304
:1018280000BF1437BD465DF8047B704780B483B0B1
:1018380000AF78607B689B899BB218460C37BD4621
:101848005DF8047B704700BF80B483B000AF786058
:101858000B467B807B687A889A8100BF0C37BD462F
:101868005DF8047B704700BF80B483B000AF786038
:101878000B46FB70FB78002B08D07B681B889BB25B
:1018880043F400539AB27B681A8007E07B681B8890
:101898009BB223F400539AB27B681A8000BF0C37BE
:1018A800BD465DF8047B704780B483B000AF7860B4
:1018B8007B681B889BB243F480539AB27B681A807A
:1018C80000BF0C37BD465DF8047B704780B485B017
:1018D80000AF78600B46FB700023FB81FB78012B7F
:1018E80003D07B681B8BFB8102E07B689B8AFB81B2
:1018F800FB8918461437BD465DF8047B704700BF66
:1019080080B483B000AF78607B681B8A9BB21846AE
:101918000C37BD465DF8047B704700BF80B483B0C8
:1019280000AF78600B467B8013467B707B78002B7A
:1019380008D07B689B889AB27B8813439AB27B68ED
:101948009A8009E07B689B889AB27B88DB439BB2CC
:1019580013409AB27B689A8000BF0C37BD465DF889
:10196800047B704780B485B000AF78600B46FB708D
:101978001346BB700023FB810023BB81FB781B0946
:10198800DBB2FB81FB89012202FA03F3BB81BB783E
:10199800002B08D07B689B889AB2BB8913439AB204
:1019A8007B689A8009E07B689B889AB2BB89DB4395
:1019B8009BB213409AB27B689A8000BF1437BD4629
:1019C8005DF8047B704700BF80B485B000AF7860D5
:1019D8000B467B800023FB737B681B899AB27B884C
:1019E80013409BB2002B02D00123FB7301E00023BC
:1019F800FB73FB7B18461437BD465DF8047B7047C4
:101A080080B483B000AF78600B467B807B88DB4373
:101A18009AB27B681A8100BF0C37BD465DF8047B1B
:101A2800704700BF80B485B000AF78600B46FB708C
:101A38000023FB730023BB8100237B8100233B81B0
:101A4800FB7803F00F03012202FA03F3BB81FB7852
:101A58001B09DBB27B817B89012202FA03F37B81BC
:101A68007B689B889AB27B8913403B817B681B8982
:101A78009AB2BB8913409BB2002B05D03B89002B3F
:101A880002D00123FB7301E00023FB73FB7B1846A4
:101A98001437BD465DF8047B704700BF80B485B03D
:101AA80000AF78600B46FB700023FB81FB7803F0E6
:101AB8000F03012202FA03F3FB81FB89DB439AB28D
:101AC8007B681A8100BF1437BD465DF8047B7047F8
:101AD80080B400AF164A164B1B6843F0010313602D
:101AE800134B00229A60124A114B1B6823F0A8532B
:101AF80023F4102313600E4B0E4A5A600C4B0E4A07
:101B0800C3F884200A4B0D4AC3F88820084A084BBA
:101B18001B6823F480231360054B0022DA60044B12
:101B28000022C3F88C2000BFBD465DF8047B7047D7
:101B3800003802401030002400300020003000241B
:101B480080B483B000AF0346FB71064B00221A70C5
:101B5800044AFB79137000BF0C37BD465DF8047B5F
:101B6800704700BF0238024080B582B000AF002342
:101B78003B600023FB710023BB71312000F0A4FD02
:101B88000346BB713B6801333B603B68B3F5A04F2C
:101B980002D0BB79002BF0D0312000F095FD034630
:101BA800002B02D00123FB7101E00023FB71FB79BC
:101BB80018460837BD4680BD80B485B000AF0346DF
:101BC800FB710023FB600A4B1B68FB60FB6823F07A
:101BD800F803FB60FB79DB00FA681343FB60044AF7
:101BE800FB68136000BF1437BD465DF8047B70477F
:101BF8000038024080B483B000AF0346FB71044A4A
:101C0800FB79136000BF0C37BD465DF8047B704755
:101C18000000474280B483B000AF0346FB710D4B10
:101C280000221A700B4B00221A70FB79012B02D08C
:101C3800042B04D007E0074B01221A7003E0054B80
:101C480005221A7000BF00BF0C37BD465DF8047B43
:101C5800704700BF7038024080B483B000AF0346BD
:101C6800FB71044AFB79136000BF0C37BD465DF871
:101C7800047B7047800E474280B485B000AFF8609F
:101C8800B9607A603B600B497B689A01BB681A436C
:101C98003B685B08013B1B041A43FB681A43BB699A
:101CA8001B0613434B6000BF1437BD465DF8047B29
:101CB800704700BF0038024080B483B000AF0346CD
:101CC800FB71044AFB79136000BF0C37BD465DF811
:101CD800047B70476000474280B483B000AF7860EF
:101CE800396007497B689A013B681B071343C1F8B1
:101CF800843000BF0C37BD465DF8047B704700BFD9
:101D08000038024080B483B000AF0346FB71044A38
:101D1800FB79136000BF0C37BD465DF8047B704744
:101D28006800474280B485B000AFF860B9607A6057
:101D38000849FB689A01BB681B061A437B681B07A6
:101D48001343C1F8883000BF1437BD465DF8047BE3
:101D5800704700BF0038024080B483B000AF03462C
:101D6800FB71044AFB79136000BF0C37BD465DF870
:101D7800047B70477000474280B483B000AF0346CD
:101D8800FB71044AFB79136000BF0C37BD465DF850
:101D9800047B70474C00474280B485B000AF786040
:101DA80039600023FB600B4B9B68FB60FB6823F0EA
:101DB800EC63FB607A683B681343FA681343FB6083
:101DC800044AFB68936000BF1437BD465DF8047B86
:101DD800704700BF0038024080B485B000AF78601B
:101DE80039600023FB600B4B9B68FB60FB6823F0AA
:101DF8007843FB607A683B681343FA681343FB60D7
:101E0800044AFB68936000BF1437BD465DF8047B45
:101E1800704700BF0038024080B485B000AF7860DA
:101E28000023FB60094B9B68FB60FB6823F00303FE
:101E3800FB60FA687B681343FB60044AFB689360A5
:101E480000BF1437BD465DF8047B70470038024078
:101E580080B400AF054B9B68DBB203F00C03DBB228
:101E68001846BD465DF8047B704700BF0038024045
:101E780080B485B000AF78600023FB60094B9B6895
:101E8800FB60FB6823F0F003FB60FA687B68134390
:101E9800FB60044AFB68936000BF1437BD465DF8D9
:101EA800047B70470038024080B485B000AF78608A
:101EB8000023FB60094B9B68FB60FB6823F4E0533D
:101EC800FB60FA687B681343FB60044AFB68936015
:101ED80000BF1437BD465DF8047B704700380240E8
:101EE80080B485B000AF78600023FB600A4B9B6824
:101EF800FB60FB6823F46043FB607B68DB00FA68E7
:101F08001343FB60044AFB68936000BF1437BD4667
:101F18005DF8047B704700BF0038024080B489B088
:101F280000AF78600023BB6100237B610023FB6165
:101F380002233B610023FB600223BB60484B9B6884
:101F480003F00C03BB61BB69042B07D0082B09D035
:101F5800002B3FD17B68434A1A603FE07B68424AC6
:101F68001A603BE03E4B5B6803F480039B0DFB600B
:101F78003B4B5B6803F03F03BB60FB68002B0DD055
:101F8800394ABB68B2FBF3F2354B596847F6C07360
:101F98000B409B0903FB02F3FB610CE0314ABB6871
:101FA800B2FBF3F22E4B596847F6C0730B409B09FE
:101FB80003FB02F3FB612A4B5B6803F440331B0C01
:101FC80001335B003B61FA693B69B2FBF3F27B6862
:101FD8001A6003E07B68234A1A6000BF204B9B68A5
:101FE80003F0F003BB61BB691B09BB611F4ABB69F6
:101FF80013441B78DBB27B617B681A687B69DA4023
:102008007B685A60164B9B6803F4E053BB61BB695D
:102018009B0ABB61154ABB6913441B78DBB27B6121
:102028007B685A687B69DA407B689A600C4B9B68CE
:1020380003F46043BB61BB695B0BBB610B4ABB69C3
:1020480013441B78DBB27B617B685A687B69DA4092
:102058007B68DA6000BF2437BD465DF8047B7047B3
:10206800003802400024F40040787D01140000206C
:1020780080B485B000AF78600023FB607B6803F410
:102088004073B3F5407F11D10F4B9B68FB60FB6831
:1020980023F4F813FB607B6823F0704323F4407348
:1020A800FA681343FB60084AFB6893600649064BCD
:1020B8001A6F7B68C3F30B0313430B6700BF143716
:1020C800BD465DF8047B70470038024080B483B099
:1020D80000AF0346FB71044AFB79136000BF0C375D
:1020E800BD465DF8047B70473C0E474280B483B020
:1020F80000AF0346FB71044AFB79136000BF0C373D
:10210800BD465DF8047B7047400E474280B483B0FB
:1021180000AF7860044A7B68136000BF0C37BD4687
:102128005DF8047B704700BF5C01474280B485B00E
:1021380000AF78600023FB600A4BD3F88C30FB605B
:10214800FB6823F44013FB60FA687B681343FB6069
:10215800044AFB68C2F88C3000BF1437BD465DF8EE
:10216800047B70470038024080B485B000AF7860C7
:102178000023FB600A4BD3F88C30FB60FB6823F428
:102188004003FB60FA687B681343FB60044AFB6802
:10219800C2F88C3000BF1437BD465DF8047B704729
:1021A8000038024080B485B000AF78600023FB603F
:1021B8000B4BD3F88C30FB60FB6823F01F03FB60EC
:1021C8007B68013BFA681343FB60054AFB68C2F869
:1021D8008C3000BF1437BD465DF8047B704700BFE4
:1021E8000038024080B485B000AF78600023FB60FF
:1021F8000B4BD3F88C30FB60FB6823F4F853FB607F
:102208007B68013B1B02FA681343FB60044AFB68C6
:10221800C2F88C3000BF1437BD465DF8047B7047A8
:102228000038024080B485B000AF78600023FB60BE
:102238000A4BD3F88C30FB60FB6823F44033FB6017
:10224800FA687B681343FB60044AFB68C2F88C3069
:1022580000BF1437BD465DF8047B70470038024064
:1022680080B483B000AF7860044A7B68136000BF15
:102278000C37BD465DF8047B704700BFE01147424C
:1022880080B483B000AF78600B46FB70FB78002BFE
:1022980006D00A49094B1A6B7B6813430B6306E0A7
:1022A8000649064B1A6B7B68DB4313400B6300BF80
:1022B8000C37BD465DF8047B704700BF003802400C
:1022C80080B483B000AF78600B46FB70FB78002BBE
:1022D80006D00A49094B5A6B7B6813434B6306E0E7
:1022E8000649064B5A6B7B68DB4313404B6300BFC0
:1022F8000C37BD465DF8047B704700BF00380240CC
:1023080080B483B000AF78600B46FB70FB78002B7D
:1023180006D00A49094B9A6B7B6813438B6306E026
:102328000649064B9A6B7B68DB4313408B6300BFFF
:102338000C37BD465DF8047B704700BF003802408B
:1023480080B483B000AF78600B46FB70FB78002B3D
:1023580006D00A49094B1A6C7B6813430B6406E0E4
:102368000649064B1A6C7B68DB4313400B6400BFBD
:102378000C37BD465DF8047B704700BF003802404B
:1023880080B483B000AF78600B46FB70FB78002BFD
:1023980006D00A49094B5A6C7B6813434B6406E024
:1023A8000649064B5A6C7B68DB4313404B6400BFFD
:1023B8000C37BD465DF8047B704700BF003802400B
:1023C80080B483B000AF78600B46FB70FB78002BBD
:1023D80006D00A49094B1A697B6813430B6106E06A
:1023E8000649064B1A697B68DB4313400B6100BF43
:1023F8000C37BD465DF8047B704700BF00380240CB
:1024080080B483B000AF78600B46FB70FB78002B7C
:1024180006D00A49094B5A697B6813434B6106E0A9
:102428000649064B5A697B68DB4313404B6100BF82
:102438000C37BD465DF8047B704700BF003802408A
:1024480080B483B000AF78600B46FB70FB78002B3C
:1024580006D00A49094B9A697B6813438B6106E0E9
:102468000649064B9A697B68DB4313408B6100BFC2
:102478000C37BD465DF8047B704700BF003802404A
:1024880080B483B000AF78600B46FB70FB78002BFC
:1024980006D00A49094B1A6A7B6813430B6206E0A7
:1024A8000649064B1A6A7B68DB4313400B6200BF80
:1024B8000C37BD465DF8047B704700BF003802400A
:1024C80080B483B000AF78600B46FB70FB78002BBC
:1024D80006D00A49094B5A6A7B6813434B6206E0E7
:1024E8000649064B5A6A7B68DB4313404B6200BFC0
:1024F8000C37BD465DF8047B704700BF00380240CA
:1025080080B483B000AF78600B46FB70FB78002B7B
:1025180006D00A49094B1A6D7B6813430B6506E020
:102528000649064B1A6D7B68DB4313400B6500BFF9
:102538000C37BD465DF8047B704700BF0038024089
:1025480080B483B000AF78600B46FB70FB78002B3B
:1025580006D00A49094B5A6D7B6813434B6506E060
:102568000649064B5A6D7B68DB4313404B6500BF39
:102578000C37BD465DF8047B704700BF0038024049
:1025880080B483B000AF78600B46FB70FB78002BFB
:1025980006D00A49094B9A6D7B6813438B6506E0A0
:1025A8000649064B9A6D7B68DB4313408B6500BF79
:1025B8000C37BD465DF8047B704700BF0038024009
:1025C80080B483B000AF78600B46FB70FB78002BBB
:1025D80006D00A49094B1A6E7B6813430B6606E05E
:1025E8000649064B1A6E7B68DB4313400B6600BF37
:1025F8000C37BD465DF8047B704700BF00380240C9
:1026080080B483B000AF78600B46FB70FB78002B7A
:1026180006D00A49094B5A6E7B6813434B6606E09D
:102628000649064B5A6E7B68DB4313404B6600BF76
:102638000C37BD465DF8047B704700BF0038024088
:1026480080B483B000AF0346FB71FB79012B06D140
:10265800094A094B1B6F43F00803136705E0064A54
:10266800054B1B6F23F00803136700BF0C37BD46EB
:102678005DF8047B704700BF0038024080B483B027
:1026880000AF03460A46FB711346BB71BB79002BAA
:1026980008D00C490B4B1B78DAB2FB791343DBB239
:1026A8000B7009E00749074B1B78DAB2FB79DB436B
:1026B800DBB21340DBB20B7000BF0C37BD465DF8D0
:1026C800047B70470D38024080B487B000AF0346E2
:1026D800FB710023FB6000237B610023FB74FB7903
:1026E8005B09DBB2FB60FB68012B03D1124B1B6853
:1026F8007B6109E0FB68022B03D10F4B1B6F7B61E9
:1027080002E00D4B5B6F7B61FB7903F01F03FB60FD
:102718007A69FB6822FA03F303F00103002B02D065
:102728000123FB7401E00023FB74FB7C18461C3773
:10273800BD465DF8047B70470038024080B400AFA6
:10274800054A054B5B6F43F08073536700BFBD4676
:102758005DF8047B704700BF0038024080B485B044
:1027680000AF0346FB710023FB73094BDA68FB7962
:102778001340002B02D00123FB7301E00023FB73FD
:10278800FB7B18461437BD465DF8047B704700BFD5
:102798000038024080B483B000AF0346FB71044A9E
:1027A800FB79137000BF0C37BD465DF8047B70479A
:1027B8000E38024080B582B000AF78607B68174A57
:1027C80093420AD101214FF40010FFF759FE00216E
:1027D8004FF40010FFF754FE1CE07B68104A934248
:1027E8000AD101214FF48000FFF74AFE00214FF47F
:1027F8008000FFF745FE0DE07B680A4A934209D145
:1028080001214FF40000FFF73BFE00214FF40000C8
:10281800FFF736FE00BF0837BD4680BD00540040B4
:1028280000580040005C004080B58AB000AF786076
:1028380039600023FB8400237B840423BB84574B2B
:10284800FB617B689B88FB84FB8C23F03F03FB8444
:1028580007F10C031846FFF761FB7B69FB61FB6915
:102868004F4AA2FB03239B0C7B84FA8C7B8C13437B
:10287800FB847B68FA8C9A807B681B889BB223F068
:1028880001039AB27B681A800023FB843B681B68AB
:10289800444A934215D83B681B685B00FA69B2FB4F
:1028A800F3F3BB84BB8C032B01D80423BB84FA8CC1
:1028B800BB8C1343FB847B8C01339AB27B681A84EC
:1028C80040E03B68DB884BF6FF72934209D13B68D6
:1028D8001A6813465B001344FA69B2FBF3F3BB842E
:1028E8000EE03B681A6813469B0013449A00134491
:1028F800FA69B2FBF3F3BB84BB8C43F48043BB841B
:10290800BB8CC3F30B03002B03D1BB8C43F0010337
:10291800BB84BA8CFB8C13439BB26FEA43436FEAC8
:102928005343FB847B8C4FF4967202FB03F31E4ADD
:1029380082FB03129211DB17D31A9BB201339AB2AE
:102948007B681A847B68FA8C9A837B681B889BB2A5
:1029580043F001039AB27B681A807B681B88FB846A
:10296800FB8C23F4816323F00203FB843B689A8881
:102978003B685B8913439AB2FB8C1343FB847B68E7
:10298800FA8C1A803B689A893B681B8913439AB270
:102998007B681A8100BF2837BD4680BD00127A00C7
:1029A80083DE1B43A0860100D34D621080B483B040
:1029B80000AF78607B6841F288321A607B68002239
:1029C8009A807B684BF6FF72DA807B6800221A8156
:1029D8007B6800225A817B684FF480429A8100BF4D
:1029E8000C37BD465DF8047B704700BF80B483B0E8
:1029F80000AF78600B46FB70FB78002B08D07B6833
:102A08001B889BB243F001039AB27B681A8007E0E7
:102A18007B681B889BB223F001039AB27B681A80FB
:102A280000BF0C37BD465DF8047B704780B483B0A7
:102A380000AF78600B46FB70FB78002B08D07B68F2
:102A48009B8C9BB223F010039AB27B689A8407E0B0
:102A58007B689B8C9BB243F010039AB27B689A8484
:102A680000BF0C37BD465DF8047B704780B485B065
:102A780000AF78600B467B800023FB817B689B8CD2
:102A8800FB81FB8923F00F03FB817B8803F00F0395
:102A98009AB2FB8913439BB2FB817B68FA899A84BB
:102AA80000BF1437BD465DF8047B704780B483B01F
:102AB80000AF78600B46FB70FB78002B08D07B6872
:102AC8001B889BB243F480739AB27B681A8007E034
:102AD8007B681B889BB223F480739AB27B681A8048
:102AE80000BF0C37BD465DF8047B704780B483B0E7
:102AF80000AF78600B46FB70FB78002B08D07B6832
:102B08001B889BB243F400739AB27B681A8007E073
:102B18007B681B889BB223F400739AB27B681A8087
:102B280000BF0C37BD465DF8047B704780B483B0A6
:102B380000AF78600B46FB701346BB70BB78002B68
:102B480004D0FB7843F00103FB7003E0FB7823F02B
:102B58000103FB70FB789AB27B681A8200BF0C37BE
:102B6800BD465DF8047B704780B483B000AF7860E1
:102B78000B46FB70FB78002B08D07B681B889BB248
:102B880043F480639AB27B681A8007E07B681B88ED
:102B98009BB223F480639AB27B681A8000BF0C371B
:102BA800BD465DF8047B704780B485B000AF78609F
:102BB8000B46FB700023FB817B689B89FB81FB89AB
:102BC80023F0FE03FB81FB789BB203F0FE039AB26D
:102BD800FB8913439BB2FB817B68FA899A8100BF0A
:102BE8001437BD465DF8047B704700BF80B483B0DE
:102BF80000AF78600B46FB70FB78002B08D07B6831
:102C08009B899BB243F001039AB27B689A8107E0E3
:102C18007B689B899BB223F001039AB27B689A81F7
:102C280000BF0C37BD465DF8047B704780B483B0A5
:102C380000AF78600B46FB70FB78002B08D07B68F0
:102C48001B889BB243F040039AB27B681A8007E066
:102C58007B681B889BB223F040039AB27B681A807A
:102C680000BF0C37BD465DF8047B704780B483B065
:102C780000AF78600B46FB70FB78002B0AD07B68AE
:102C88001B889BB26FEA43436FEA53439AB27B684F
:102C98001A8007E07B681B889BB2C3F30E039AB2C5
:102CA8007B681A8000BF0C37BD465DF8047B70470F
:102CB80080B483B000AF78600B46FB70FB78002BC4
:102CC80008D17B681B889BB243F080039AB27B686B
:102CD8001A8007E07B681B889BB223F080039AB2B6
:102CE8007B681A8000BF0C37BD465DF8047B7047CF
:102CF80080B483B000AF78600B467B807B88B3F5E7
:102D0800804F08D07B689B8B9BB223F480439AB298
:102D18007B689A8307E07B689B8B9BB243F4804374
:102D28009AB27B689A8300BF0C37BD465DF8047B76
:102D3800704700BF80B483B000AF78600B467B80DB
:102D48007B88B3F5006F08D17B681B889BB243F47E
:102D580000639AB27B681A8007E07B681B889BB285
:102D680023F400639AB27B681A8000BF0C37BD4613
:102D78005DF8047B704700BF80B483B000AF786013
:102D88000B467B807B88B3F5005F08D17B681B8886
:102D98009BB243F400539AB27B681A8007E07B68C1
:102DA8001B889BB223F400539AB27B681A8000BF39
:102DB8000C37BD465DF8047B704700BF80B483B014
:102DC80000AF78600B46FB70FB78002B08D07B685F
:102DD8001B889BB243F010039AB27B681A8007E005
:102DE8007B681B889BB223F010039AB27B681A8019
:102DF80000BF0C37BD465DF8047B704780B483B0D4
:102E080000AF78600B46FB70FB789AB27B681A8239
:102E180000BF0C37BD465DF8047B704780B483B0B3
:102E280000AF78607B681B8A9BB2DBB218460C3710
:102E3800BD465DF8047B704780B483B000AF78600E
:102E48000B46FB70FB78002B08D07B681B889BB275
:102E580043F480539AB27B681A8007E07B681B882A
:102E68009BB223F480539AB27B681A8000BF0C3758
:102E7800BD465DF8047B704780B483B000AF7860CE
:102E88000B467B807B88B3F5006F08D17B681B8875
:102E98009BB243F400639AB27B681A8007E07B68B0
:102EA8001B889BB223F400639AB27B681A8000BF28
:102EB8000C37BD465DF8047B704700BF80B483B013
:102EC80000AF78600B46FB70FB78002B08D07B685E
:102ED8001B889BB243F020039AB27B681A8007E0F4
:102EE8007B681B889BB223F020039AB27B681A8008
:102EF80000BF0C37BD465DF8047B704780B483B0D3
:102F080000AF78607B681B8B9BB21B0A9BB2DBB25D
:102F180018460C37BD465DF8047B704780B483B013
:102F280000AF78600B46FB70FB78002B08D07B68FD
:102F38009B889BB243F400639AB27B689A8007E04F
:102F48007B689B889BB223F400639AB27B689A8063
:102F580000BF0C37BD465DF8047B704780B483B072
:102F680000AF78600B46FB70FB78002B08D07B68BD
:102F78009B889BB243F480539AB27B689A8007E09F
:102F88007B689B889BB223F480539AB27B689A80B3
:102F980000BF0C37BD465DF8047B704780B485B030
:102FA80000AF78600B46FB700023FB607B68FB601A
:102FB800FA78FB681344FB60FB681B889BB21846D1
:102FC8001437BD465DF8047B704700BF80B483B0FA
:102FD80000AF78600B467B8013467B707B78002BB4
:102FE80008D07B689B889AB27B8813439AB27B6827
:102FF8009A8009E07B689B889AB27B88DB439BB206
:1030080013409AB27B689A8000BF0C37BD465DF8C2
:10301800047B704780B487B000AF786039600023C4
:103028003B610023FB600023BB600023FB757B68CA
:103038009B8A9BB2FB607B681B8B9BB2BB60BB68A7
:103048001B04BB60FA68BB68134323F07F433B61F2
:103058003A693B681A403B689A4202D10123FB75E2
:1030680001E00023FB75FB7D18461C37BD465DF863
:10307800047B704780B487B000AF786000237B6121
:1030880000233B610023FB607B689B8A9BB23B610A
:103098007B681B8B9BB2FB60FB681B04FB603A6977
:1030A800FB68134323F07F437B617B6918461C3719
:1030B800BD465DF8047B704780B487B000AF786088
:1030C80039600023FB7500233B610023FB607B68AC
:1030D800FB603B681B0F3B613B6823F07F433B6011
:1030E8003B69002B03D0FB681433FB6005E03B68A9
:1030F8001B0C3B60FB681833FB60FB681A683B6875
:103108001340002B02D00123FB7501E00023FB755F
:10311800FB7D18461C37BD465DF8047B704700BF31
:1031280080B485B000AF786039600023FB603B68ED
:1031380023F07F43FB60FB689BB2DB439AB27B685A
:103148009A8200BF1437BD465DF8047B704700BF04
:1031580080B485B000AF786039600023FB7300232A
:10316800BB603B6803F0E0631B0C7A68928892B2FC
:103178001340BB603B6823F07F433B607B689B8ABE
:103188009BB21A463B681340002B05D0BB68002B46
:1031980002D00123FB7301E00023FB73FB7B18467D
:1031A8001437BD465DF8047B704700BF80B485B016
:1031B80000AF786039600023FB603B6823F07F43F1
:1031C800FB60FB689BB2DB439AB27B689A8200BFC4
:1031D8001437BD465DF8047B704700BF80B582B0E8
:1031E80000AF78607B683B4A934208D101211020E8
:1031F800FFF766F900211020FFF762F965E07B68A8
:10320800354A93420AD101214FF40030FFF738F9CB
:1032180000214FF40030FFF733F956E07B682F4A5E
:1032280093420AD101214FF48020FFF729F90021A8
:103238004FF48020FFF724F947E07B68284A93423F
:103248000AD101214FF40020FFF71AF900214FF4A9
:103258000020FFF715F938E07B68224A93420AD12B
:1032680001214FF48010FFF70BF900214FF4801073
:10327800FFF706F929E07B681B4A934208D1012130
:103288002020FFF71DF900212020FFF719F91CE085
:103298007B68164A93420AD101214FF08040FFF71C
:1032A800EFF800214FF08040FFF7EAF80DE07B6867
:1032B8000F4A934209D101214FF00040FFF7E0F88F
:1032C80000214FF00040FFF7DBF800BF0837BD468C
:1032D80080BD00BF0010014000440040004800408D
:1032E800004C0040005000400014014000780040AD
:1032F800007C004080B58AB000AF78603960002358
:103308007B6200233B620023FB610023BB617B6877
:103318001B8A9BB27B627B6A23F440537B623B68C7
:10332800DB881A467B6A13437B627B6A9AB27B68A6
:103338001A827B689B899BB27B627B6A23F4B053B9
:1033480023F00C037B623B689A883B681B89134314
:103358009AB23B685B8913439BB21A467B6A134354
:103368007B627B6A9AB27B689A817B689B8A9BB2F4
:103378007B627B6A23F440737B623B689B891A46B5
:103388007B6A13437B627B6A9AB27B689A8207F1F5
:1033980008031846FEF7C2FD7B68314A934203D002
:1033A8007B68304A934202D17B693B6201E03B690A
:1033B8003B627B689B899BB29BB21BB2002B0CDAE9
:1033C8003A6A13469B0013449A001A443B681B68E8
:1033D8005B00B2FBF3F3FB610BE03A6A13469B0018
:1033E80013449A001A443B681B689B00B2FBF3F332
:1033F800FB61FB691C4AA2FB03235B091B017B627F
:103408007B6A1B09642202FB03F3FA69D31ABB61C6
:103418007B689B899BB29BB21BB2002B0CDABB6901
:10342800DB003233104AA2FB03235B0903F00703D6
:103438007A6A13437B620BE0BB691B0132330A4A89
:10344800A2FB03235B0903F00F037A6A13437B6231
:103458007B6A9AB27B681A8100BF2837BD4680BD57
:1034680000100140001401401F85EB5180B483B067
:1034780000AF78607B684FF416521A607B680022B0
:103488009A807B680022DA807B6800221A817B6838
:103498000C225A817B6800229A8100BF0C37BD46F6
:1034A8005DF8047B704700BF80B485B000AF7860DA
:1034B80039600023FB607B681B8A9BB2FB60FB685A
:1034C80023F47063FB603B681A883B685B8813438E
:1034D8009AB23B689B8813439AB23B68DB881343D4
:1034E8009BB21A46FB681343FB60FB689AB27B6881
:1034F8001A8200BF1437BD465DF8047B704700BFD1
:1035080080B483B000AF78607B6800221A807B6843
:1035180000225A807B6800229A807B680022DA8029
:1035280000BF0C37BD465DF8047B704780B483B09C
:1035380000AF78600B46FB70FB78002B08D07B68E7
:103548009B899BB243F400539AB27B689A8107E047
:103558007B689B899BB223F400539AB27B689A815B
:1035680000BF0C37BD465DF8047B704780B483B05C
:1035780000AF78600B46FB707B681B8B9BB223F017
:10358800FF039AB27B681A837B681B8B9AB2FB781D
:103598009BB213439AB27B681A8300BF0C37BD46AF
:1035A8005DF8047B704700BF80B483B000AF7860DB
:1035B8000B46FB70FB78002B0AD07B689B899BB27B
:1035C8006FEA43436FEA53439AB27B689A8107E0F4
:1035D8007B689B899BB2C3F30E039AB27B689A817E
:1035E80000BF0C37BD465DF8047B704780B483B0DC
:1035F80000AF78600B46FB70FB78002B08D07B6827
:103608009B8A9BB243F400639AB27B689A8207E074
:103618007B689B8A9BB223F400639AB27B689A8288
:1036280000BF0C37BD465DF8047B704780B483B09B
:1036380000AF78600B467B807B88C3F308039AB29F
:103648007B689A8000BF0C37BD465DF8047B7047E5
:1036580080B483B000AF78607B689B889BB2C3F36B
:1036680008039BB218460C37BD465DF8047B7047CB
:1036780080B483B000AF78600B46FB707B681B8A10
:103688009BB223F00F039AB27B681A827B681B8A6D
:103698009AB2FB789BB213439AB27B681A8200BF36
:1036A8000C37BD465DF8047B704700BF80B483B01B
:1036B80000AF78600B46FB70FB78002B08D07B6866
:1036C8009B899BB243F002039AB27B689A8107E018
:1036D8007B689B899BB223F002039AB27B689A812C
:1036E80000BF0C37BD465DF8047B704780B483B0DB
:1036F80000AF78600B467B807B689B899BB223F484
:1037080000639AB27B689A817B689B899AB27B88AE
:1037180013439AB27B689A8100BF0C37BD465DF8A7
:10372800047B704780B483B000AF78600B467B8021
:103738007B681B8A9BB223F020039AB27B681A82AB
:103748007B681B8A9AB27B8813439AB27B681A8279
:1037580000BF0C37BD465DF8047B704780B483B06A
:1037680000AF78600B46FB70FB78002B08D07B68B5
:103778001B8A9BB243F480439AB27B681A8207E0A3
:103788007B681B8A9BB223F480439AB27B681A82B7
:1037980000BF0C37BD465DF8047B704780B483B02A
:1037A80000AF78607B689B899BB243F001039AB2B3
:1037B8007B689A8100BF0C37BD465DF8047B704773
:1037C80080B483B000AF78600B46FB70FB78002BA9
:1037D80008D07B689B8A9BB243F008039AB27B6847
:1037E8009A8207E07B689B8A9BB223F008039AB20F
:1037F8007B689A8200BF0C37BD465DF8047B704732
:1038080080B483B000AF78600B46FB707B681B8B7D
:103818009BB2DBB29AB27B681A837B681B8B9AB225
:10382800FB789BB21B029BB213439AB27B681A8344
:1038380000BF0C37BD465DF8047B704780B483B089
:1038480000AF78600B46FB70FB78002B08D07B68D4
:103858009B8A9BB243F020039AB27B689A8207E066
:103868007B689B8A9BB223F020039AB27B689A827A
:1038780000BF0C37BD465DF8047B704780B483B049
:1038880000AF78600B46FB70FB78002B08D07B6894
:103898009B8A9BB243F010039AB27B689A8207E036
:1038A8007B689B8A9BB223F010039AB27B689A824A
:1038B80000BF0C37BD465DF8047B704780B483B009
:1038C80000AF78600B467B807B689B8A9BB223F0B5
:1038D80004039AB27B689A827B689B8A9AB27B8837
:1038E80013439AB27B689A8200BF0C37BD465DF8D5
:1038F800047B704780B483B000AF78600B46FB70E0
:10390800FB78002B08D07B689B8A9BB243F00203AC
:103918009AB27B689A8207E07B689B8A9BB223F005
:1039280002039AB27B689A8200BF0C37BD465DF8E5
:10393800047B704780B483B000AF78600B467B800F
:1039480013467B707B78002B08D07B689B8A9AB2E1
:103958007B8813439AB27B689A8209E07B689B8ACA
:103968009AB27B88DB439BB213409AB27B689A82F7
:1039780000BF0C37BD465DF8047B704780B487B044
:1039880000AF78600B467B8013467B7000233B6159
:103998000023FB600023BB6000237B617B687B61A5
:1039A8007B88DBB25B09DBB23B617B8803F01F03DA
:1039B800FB600122FB6802FA03F3BB603B69012B41
:1039C80003D17B690C337B6109E03B69022B03D18E
:1039D8007B6910337B6102E07B6914337B617B7800
:1039E800002B06D07B697A691168BA680A431A60A5
:1039F80006E07B697A691168BA68D2430A401A609E
:103A080000BF1C37BD465DF8047B704780B485B0A5
:103A180000AF78600B467B800023FB737B681B88B4
:103A28009AB27B8813409BB2002B02D00123FB7310
:103A380001E00023FB73FB7B18461437BD465DF895
:103A4800047B704780B483B000AF78600B467B80FE
:103A58007B88DB439AB27B681A8000BF0C37BD466F
:103A68005DF8047B704700BF80B487B000AF786012
:103A78000B467B800023FB6000237B610023BB6037
:103A88000023FB747B88DBB25B09DBB2BB607B88FD
:103A980003F01F037B6101227B6902FA03F37B6158
:103AA800BB68012B07D17B689B899BB21A467B694F
:103AB80013407B6111E0BB68022B07D17B681B8A2E
:103AC8009BB21A467B6913407B6106E07B689B8A40
:103AD8009BB21A467B6913407B617B881B0A9BB2A9
:103AE800FB600122FB6802FA03F3FB607B681B881A
:103AF8009BB21A46FB681340FB607B69002B05D01C
:103B0800FB68002B02D00123FB7401E00023FB7447
:103B1800FB7C18461C37BD465DF8047B704700BF28
:103B280080B485B000AF78600B467B800023FB81B2
:103B38000023BB817B881B0AFB81FB89012202FAD7
:103B480003F3BB81BB89DB439AB27B681A8000BF51
:103B58001437BD465DF8047B704700BF80B483B05E
:103B680000AF78607B681B6823F001027B681A60ED
:103B78007B6800221A607B6800225A607B680022FA
:103B88009A607B680022DA607B6800221A617B6891
:103B980021225A617B68464A934203D1454B3D2214
:103BA8009A607EE07B68444A934204D1414B4FF4CB
:103BB80074629A6075E07B68404A934204D13D4B39
:103BC8004FF474129A606CE07B683D4A934204D1CA
:103BD800384B4FF074629A6063E07B68394A9342CD
:103BE80003D1344B384ADA605BE07B68374A93424A
:103BF80003D1304B364ADA6053E07B68354A93424A
:103C080003D12C4B344ADA604BE07B68334A934249
:103C180004D1284B4FF03D52DA6042E07B68304ACD
:103C2800934203D12F4B3D229A603AE07B682E4A9B
:103C3800934204D12B4B4FF474629A6031E07B6855
:103C48002A4A934204D1274B4FF474129A6028E011
:103C58007B68274A934204D1224B4FF074629A60E2
:103C68001FE07B68234A934203D11E4B164ADA6051
:103C780017E07B68204A934203D11A4B144ADA6052
:103C88000FE07B681D4A934203D1164B124ADA6053
:103C980007E07B681A4A934203D1124B4FF03D521A
:103CA800DA6000BF0C37BD465DF8047B704700BF83
:103CB80010600240006002402860024040600240FC
:103CC80058600240706002403D0000208860024059
:103CD800400F0020A060024000003D20B860024074
:103CE80010640240006402402864024040640240BC
:103CF800586402407064024088640240A064024034
:103D0800B864024080B485B000AF786039600023A1
:103D1800FB607B681B68FB60FA68254B1340FB60FF
:103D28003B681A683B68DB681A433B685B691A435F
:103D38003B689B691A433B68DB691A433B681B6A0B
:103D48001A433B685B6A1A433B689B6A1A433B68A1
:103D58005B6B1A433B689B6B1343FA681343FB6026
:103D68007B68FA681A607B685B69FB60FB6823F014
:103D78000703FB603B68DA6A3B681B6B1343FA680E
:103D88001343FB607B68FA685A613B681A697B6871
:103D98005A603B685A687B689A603B689A687B6897
:103DA800DA6000BF1437BD465DF8047B704700BF7A
:103DB8003F801CF080B483B000AF78607B6800223D
:103DC8001A607B6800225A607B6800229A607B68D0
:103DD8000022DA607B6800221A617B6800225A613F
:103DE8007B6800229A617B680022DA617B68002286
:103DF8001A627B6800225A627B6800229A627B689A
:103E08000022DA627B6800221A637B6800225A6308
:103E18007B6800229A6300BF0C37BD465DF8047BBF
:103E2800704700BF80B483B000AF78600B46FB706A
:103E3800FB78002B06D07B681B6843F001027B6887
:103E48001A6005E07B681B6823F001027B681A6032
:103E580000BF0C37BD465DF8047B704780B483B063
:103E680000AF786039603B68002B06D07B681B6820
:103E780043F400427B681A6005E07B681B6823F402
:103E880000427B681A6000BF0C37BD465DF8047BB2
:103E9800704700BF80B483B000AF786039603B687A
:103EA800002B06D07B681B6843F020027B681A60F1
:103EB80005E07B681B6823F020027B681A6000BF5E
:103EC8000C37BD465DF8047B704700BF80B483B0F3
:103ED80000AF78600B467B807A887B685A6000BFA9
:103EE8000C37BD465DF8047B704700BF80B483B0D3
:103EF80000AF78607B685B689BB218460C37BD469C
:103F08005DF8047B704700BF80B485B000AFF860EF
:103F1800B9607A607B68002B06D0FB681B6843F4A5
:103F28000022FB681A6005E0FB681B6823F4002286
:103F3800FB681A60FB68BA681A6100BF1437BD468F
:103F48005DF8047B704700BF80B483B000AF786031
:103F58000B46FB70FB78002B06D07B681B6843F48C
:103F680080227B681A6005E07B681B6823F4802246
:103F78007B681A6000BF0C37BD465DF8047B70474C
:103F880080B485B000AFF860B9607A607B68002BB8
:103F980003D0FB68BA681A6102E0FB68BA68DA60A5
:103FA80000BF1437BD465DF8047B704780B485B008
:103FB80000AF78600023FB607B681B6803F4002374
:103FC800002B02D00123FB6001E00023FB60FB68AB
:103FD80018461437BD465DF8047B704780B485B039
:103FE80000AF78600023FB737B681B6803F0010354
:103FF800002B02D00123FB7301E00023FB73FB7B42
:1040080018461437BD465DF8047B704780B485B008
:1040180000AF78600023FB607B685B6903F03803BE
:10402800FB60FB6818461437BD465DF8047B704793
:1040380080B487B000AF786039600023FB75002337
:10404800FB607B68154A934202D8154B3B6101E03F
:10405800144B3B613B6803F00053002B03D03B69D2
:104068005B68FB6002E03B691B68FB60FB6823F050
:10407800F02323F08213FB60FA683B681340002B9F
:1040880002D00123FB7501E00023FB75FB7D184678
:104098001C37BD465DF8047B704700BF0F640240C3
:1040A800006002400064024080B485B000AF7860D0
:1040B80039607B68104A934202D8104BFB6001E0DC
:1040C8000F4BFB603B6803F00053002B07D03B68A5
:1040D80023F0F02323F08213FA68D36006E03B68EC
:1040E80023F0F02323F08213FA68936000BF14379B
:1040F800BD465DF8047B70470F64024000600240D3
:104108000064024080B485B000AFF860B96013461F
:10411800FB71BB6803F08003002B0FD0FB79002BE9
:1041280006D0FB685B6943F08002FB685A6105E0D2
:10413800FB685B6923F08002FB685A61BB68802BCF
:1041480014D0FB79002B08D0FB681A68BB6803F011
:104158001E031A43FB681A6008E0FB681A68BB680C
:1041680003F01E03DB431A40FB681A6000BF1437D4
:10417800BD465DF8047B704780B487B000AF7860B7
:1041880039600023FB750023FB600023BB607B685C
:10419800224A934202D8224B3B6101E0214B3B610A
:1041A8003B6823F0F02323F0C313002B0AD03B68AD
:1041B800DB0A03F01E03FB607B681A68FB68134088
:1041C800BB6004E07B685B6903F08003BB603B680D
:1041D80003F00053002B03D03B695B68FB6002E0EF
:1041E8003B691B68FB60FB6823F0F02323F0821314
:1041F800FB60FA683B681340002B05D0BB68002BB6
:1042080002D00123FB7501E00023FB75FB7D1846F6
:104218001C37BD465DF8047B704700BF0F64024041
:10422800006002400064024080B485B000AF78604E
:1042380039607B68104A934202D8104BFB6001E05A
:104248000F4BFB603B6803F00053002B07D03B6823
:1042580023F0F02323F08213FA68D36006E03B686A
:1042680023F0F02323F08213FA68936000BF143719
:10427800BD465DF8047B70470F6402400060024051
:104288000064024080B582B000AF78607B684B4A1A
:10429800934208D101210120FEF792F80021012064
:1042A800FEF78EF886E07B68454A934208D10121E3
:1042B8000220FEF785F800210220FEF781F879E058
:1042C8007B68404A934208D101210420FEF778F820
:1042D80000210420FEF774F86CE07B683A4A9342A8
:1042E80008D101210820FEF76BF800210820FEF70D
:1042F80067F85FE07B68354A934208D101211020B6
:10430800FEF75EF800211020FEF75AF852E07B68AD
:104318002F4A934208D101212020FEF751F80021AD
:104328002020FEF74DF845E07B682A4A934208D1E1
:1043380001214020FEF744F800214020FEF740F814
:1043480038E07B68244A934208D101218020FEF797
:1043580037F800218020FEF733F82BE07B681F4AEE
:1043680093420AD101214FF48070FEF729F8002109
:104378004FF48070FEF724F81CE07B68184A9342DB
:104388000AD101214FF40070FEF71AF800214FF40A
:104398000070FEF715F80DE07B68124A934209D1C8
:1043A80001214FF48060FEF70BF800214FF4806084
:1043B800FEF706F800BF0837BD4680BD0000024082
:1043C8000004024000080240000C024000100240B5
:1043D8000014024000180240001C02400020024065
:1043E800002402400028024080B487B000AF786003
:1043F800396000237B6100233B610023FB600023BD
:104408007B6176E001227B6902FA03F33B613B683A
:104418001A683B691340FB60FA683B699A4265D1A8
:104428007B681A687B695B00032101FA03F3DB43AD
:104438001A407B681A607B681A683B681B791946C2
:104448007B695B0001FA03F31A437B681A603B68D7
:104458001B79012B03D03B681B79022B2ED17B687B
:104468009A687B695B00032101FA03F3DB431A4076
:104478007B689A607B689A683B685B7919467B69B8
:104488005B0001FA03F31A437B689A607B685A68F9
:104498007B699BB2012101FA03F3DB431A407B6875
:1044A8005A607B685A683B689B7919467B699BB25E
:1044B80001FA03F39BB21A437B685A607B68DA6897
:1044C8007B699BB25B00032101FA03F3DB431A40CB
:1044D8007B68DA607B68DA683B68DB7919467B6958
:1044E8005B0001FA03F31A437B68DA607B690133E6
:1044F8007B617B690F2B85D900BF1C37BD465DF8F2
:10450800047B704780B483B000AF78607B684FF657
:10451800FF721A607B6800221A717B6800225A7148
:104528007B6800229A717B680022DA7100BF0C3721
:10453800BD465DF8047B704780B485B000AF7860F5
:104548000B467B804FF48033FB607A88FB6813430B
:10455800FB60FA687B68DA617A887B68DA61FA68F6
:104568007B68DA617B68DB69FB607B68DB69FB6021
:1045780000BF1437BD465DF8047B704780B485B032
:1045880000AF78600B467B800023FB737B681A6959
:104598007B881340002B02D00123FB7301E000232A
:1045A800FB73FB7B18461437BD465DF8047B7047E8
:1045B80080B483B000AF78607B681B699BB21846F3
:1045C8000C37BD465DF8047B704700BF80B485B0EA
:1045D80000AF78600B467B800023FB737B685A69C9
:1045E8007B881340002B02D00123FB7301E00023DA
:1045F800FB73FB7B18461437BD465DF8047B704798
:1046080080B483B000AF78607B685B699BB2184662
:104618000C37BD465DF8047B704700BF80B483B09B
:1046280000AF78600B467B807B687A881A8300BF6E
:104638000C37BD465DF8047B704700BF80B483B07B
:1046480000AF78600B467B807B687A885A8300BF0E
:104658000C37BD465DF8047B704700BF80B483B05B
:1046680000AF78600B467B8013467B707B78002B0D
:1046780003D07B687A881A8302E07B687A885A8339
:1046880000BF0C37BD465DF8047B704780B483B02B
:1046980000AF78600B467B807A887B685A6100BFE0
:1046A8000C37BD465DF8047B704700BF80B483B00B
:1046B80000AF78600B467B807B685A697B885A40DC
:1046C8007B685A6100BF0C37BD465DF8047B7047B4
:1046D80080B485B000AF78600B467B8013467B7052
:1046E8000023FB600023BB607A787B8803F0070314
:1046F8009B0002FA03F3FB607B88DB089BB2184639
:104708007B88DB089BB21A467B68083253F8222064
:104718007B8803F007039B000F2101FA03F3DB43B7
:1047280002EA03017B6800F1080243F822107B8843
:10473800DB089BB21A467B68083253F82220FB68D4
:104748001343BB607B88DB089BB21A467B68083240
:10475800B96843F8221000BF1437BD465DF8047BE2
:10476800704700BF80B584B000AF786039607B685F
:10477800FB60FB68002B09D14FF0030383F311881A
:10478800BFF36F8FBFF34F8FBB60FEE702F0F0FF00
:10479800FB681A68FB68DB6BF968096C01FB03F3BB
:1047A8001A44FB685A60FB6800229A63FB681A681F
:1047B800FB689A60FB681A68FB68DB6B013BF96869
:1047C800096C01FB03F31A44FB68DA60FB684FF0DD
:1047D800FF325A64FB684FF0FF329A643B68002B43
:1047E80014D1FB681B69002B1AD0FB6810331846DC
:1047F80001F0BCFE0346012B12D10D4B4FF0805245
:104808001A60BFF34F8FBFF36F8F09E0FB68103357
:10481800184603F0B7F8FB682433184603F0B2F8DB
:1048280002F0D4FF012318461037BD4680BD00BFF3
:1048380004ED00E080B58AB000AFF860B9601346B7
:10484800FB7100233B62FB68002B09D14FF0030387
:1048580083F31188BFF36F8FBFF34F8F3B61FEE780
:10486800BB68002B02D100237B6205E0FB68BA68B5
:1048780002FB03F301337B627B6A5433184602F070
:104888003DFEF861FB69002B1DD0FB69BB61BB686D
:10489800002B03D1BB69BA691A6004E0FB6903F114
:1048A8005402BB691A60BB69FA68DA63BB69BA6803
:1048B8001A640121B869FFF755FFBB69FA7983F8D3
:1048C8005020BB693B623B6A002B09D14FF00303C0
:1048D80083F31188BFF36F8FBFF34F8F7B61FEE7C0
:1048E8003B6A18462837BD4680BD00BF80B584B0F6
:1048F80000AF0346FB71542002F000FEF860FB682D
:10490800002B30D0FB6800225A60FB6800221A6036
:10491800FB6800229A60FB680022DA60FB680022CC
:104928009A63FB680122DA63FB6800221A64FB6859
:104938004FF0FF325A64FB684FF0FF329A64FB680D
:10494800FA7983F85020FB681033184603F01AF8F8
:10495800FB682433184603F015F8002300220021D1
:10496800F86800F07FF8FB68002B09D14FF00303CB
:1049780083F31188BFF36F8FBFF34F8FBB60FEE7E0
:10498800FB6818461037BD4680BD00BF90B587B09C
:1049980000AF78607B683B613B69002B09D14FF021
:1049A800030383F31188BFF36F8FBFF34F8FFB604F
:1049B800FEE73B695C6802F08FF903469C4211D11F
:1049C8003B69DB685A1E3B69DA603B69DB68002B90
:1049D80005D1002300220021386900F043F80123A3
:1049E8007B6101E000237B617B6918461C37BD466B
:1049F80090BD00BF90B587B000AF786039607B6824
:104A08003B613B69002B09D14FF0030383F3118805
:104A1800BFF36F8FBFF34F8FFB60FEE73B695C68A6
:104A280002F05AF903469C4207D13B69DB685A1CDD
:104A38003B69DA6001237B610EE000233A680021BC
:104A4800386900F0F7F978617B69012B04D13B697B
:104A5800DB685A1C3B69DA607B6918461C37BD461F
:104A680090BD00BF80B58CB000AFF860B9607A60C7
:104A78003B600023FB62FB68BB62BB6A002B09D169
:104A88004FF0030383F31188BFF36F8FBFF34F8F8A
:104A9800BB61FEE7BB68002B03D1BB6A1B6C002B14
:104AA80001D1012300E00023002B09D14FF00303BB
:104AB80083F31188BFF36F8FBFF34F8FFB61FEE75E
:104AC8003B68022B03D1BB6ADB6B012B01D10123AD
:104AD80000E00023002B09D14FF0030383F3118872
:104AE800BFF36F8FBFF34F8F3B62FEE702F040FECC
:104AF800BB6A9A6BBB6ADB6B9A4202D33B68022B98
:104B080029D13A68B968B86A00F0FEFB7862BB6AD6
:104B18005B6A002B10D0BB6A2433184601F026FDCF
:104B28000346012B13D13C4B4FF080521A60BFF360
:104B38004F8FBFF36F8F0AE07B6A002B07D0364B8D
:104B48004FF080521A60BFF34F8FBFF36F8F02F0A0
:104B58003DFE01235CE07B68002B03D102F036FEAA
:104B6800002355E0FB6A002B06D107F11003184615
:104B780001F0C4FD0123FB6202F028FE01F07EF97A
:104B880002F0F6FDBB6A5B6CB3F1FF3F02D1BB6A72
:104B980000225A64BB6A9B6CB3F1FF3F02D1BB6A27
:104BA80000229A6402F012FE3A1D07F11003114622
:104BB800184601F0C7FD0346002B23D1B86A00F060
:104BC800B9FC0346002B17D0BB6A10337A6811462C
:104BD800184601F017FCB86A00F028FC01F05CF9EF
:104BE8000346002B82D10C4B4FF080521A60BFF362
:104BF8004F8FBFF36F8F79E7B86A00F017FC01F0A9
:104C08004BF973E7B86A00F011FC01F045F900238D
:104C180018463037BD4680BD04ED00E080B58EB043
:104C280000AFF860B9607A603B60FB683B633B6B40
:104C3800002B09D14FF0030383F31188BFF36F8F63
:104C4800BFF34F8FBB61FEE7BB68002B03D13B6B03
:104C58001B6C002B01D1012300E00023002B09D19C
:104C68004FF0030383F31188BFF36F8FBFF34F8FA8
:104C7800FB61FEE73B68022B03D13B6BDB6B012B2F
:104C880001D1012300E00023002B09D14FF00303D9
:104C980083F31188BFF36F8FBFF34F8F3B62FEE73B
:104CA80002F02EFEEFF311824FF0030383F3118815
:104CB800BFF36F8FBFF34F8F7A627B617B6ABB62F2
:104CC8003B6B9A6B3B6BDB6B9A4202D33B68022BC4
:104CD80024D13A68B968386B00F016FB3B6B9B6CC3
:104CE800B3F1FF3F12D13B6B5B6A002B13D03B6BD8
:104CF8002433184601F03AFC0346002B0BD07B689E
:104D0800002B08D07B6801221A6004E03B6B9B6C87
:104D18005A1C3B6B9A6401237B6301E000237B638D
:104D2800BB6AFB62FB6A83F311887B6B18463837D2
:104D3800BD4680BD80B58CB000AF786039607B68B7
:104D4800BB62BB6A002B09D14FF0030383F31188C0
:104D5800BFF36F8FBFF34F8F3B61FEE7BB6A1B6CDE
:104D6800002B09D04FF0030383F31188BFF36F8F33
:104D7800BFF34F8F7B61FEE7BB6A1B68002B03D133
:104D8800BB6A5B68002B01D1012300E00023002BE4
:104D980009D14FF0030383F31188BFF36F8FBFF37B
:104DA8004F8FBB61FEE702F0ABFDEFF311824FF0CE
:104DB800030383F31188BFF36F8FBFF34F8FFA613B
:104DC800FB60FB693B62BB6A9A6BBB6ADB6B9A420E
:104DD80024D2BB6A9B6B5A1CBB6A9A63BB6A9B6CE6
:104DE800B3F1FF3F12D1BB6A5B6A002B13D0BB6AD9
:104DF8002433184601F0BAFB0346002B0BD03B685E
:104E0800002B08D03B6801221A6004E0BB6A9B6C47
:104E18005A1CBB6A9A640123FB6201E00023FB620F
:104E28003B6A7B627B6A83F31188FB6A18463037DA
:104E3800BD4680BD80B58CB000AFF860B9607A60BF
:104E48003B600023FB62FB68BB62BB6A002B09D195
:104E58004FF0030383F31188BFF36F8FBFF34F8FB6
:104E6800FB61FEE7BB68002B03D1BB6A1B6C002B00
:104E780001D1012300E00023002B09D14FF00303E7
:104E880083F31188BFF36F8FBFF34F8F3B62FEE749
:104E980002F06EFCBB6A9B6B002B47D0BB6ADB68D9
:104EA8007B62B968B86A00F09BFA3B68002B22D194
:104EB800BB6A9B6B5A1EBB6A9A63BB6A1B68002B52
:104EC80004D102F02BF80246BB6A5A60BB6A1B6920
:104ED800002B27D0BB6A1033184601F047FB034666
:104EE800012B1FD1494B4FF080521A60BFF34F8FEF
:104EF800BFF36F8F16E0BB6A7A6ADA60BB6A5B6AD7
:104F0800002B0FD0BB6A2433184601F02FFB034651
:104F1800002B07D03D4B4FF080521A60BFF34F8FE4
:104F2800BFF36F8F02F052FC01236AE07B68002B0D
:104F380003D102F04BFC002363E0FB6A002B06D18F
:104F480007F11403184601F0D9FB0123FB6202F0B4
:104F58003DFC00F093FF02F00BFCBB6A5B6CB3F105
:104F6800FF3F02D1BB6A00225A64BB6A9B6CB3F153
:104F7800FF3F02D1BB6A00229A6402F027FC3A1D67
:104F880007F114031146184601F0DCFB0346002B19
:104F980031D1B86A00F096FA0346002B25D0BB6AD7
:104FA8001B68002B08D102F0E3FBBB6A5B6818465C
:104FB80001F0A2FE02F00AFCBB6A24337A681146AB
:104FC800184601F01FFAB86A00F030FA00F064FFE2
:104FD8000346002B7FF45CAF0C4B4FF080521A60F5
:104FE800BFF34F8FBFF36F8F52E7B86A00F01EFA16
:104FF80000F052FF4CE7B86A00F018FA00F04CFFD6
:10500800002318463037BD4680BD00BF04ED00E0E0
:1050180080B58CB000AFF860B9607A60FB68BB629D
:10502800BB6A002B09D14FF0030383F31188BFF348
:105038006F8FBFF34F8F7B61FEE7BB68002B03D1F7
:10504800BB6A1B6C002B01D1012300E00023002B5D
:1050580009D14FF0030383F31188BFF36F8FBFF3B8
:105068004F8FBB61FEE702F04BFCEFF311824FF06C
:10507800030383F31188BFF36F8FBFF34F8FFA6178
:105088003B61FB693B62BB6A9B6B002B28D0B9680C
:10509800B86A00F0A5F9BB6A9B6B5A1EBB6A9A6393
:1050A800BB6A5B6CB3F1FF3F12D1BB6A1B69002B73
:1050B80013D0BB6A1033184601F058FA0346002B88
:1050C8000BD07B68002B08D07B6801221A6004E0B3
:1050D800BB6A5B6C5A1CBB6A5A640123FB6201E021
:1050E8000023FB623B6A7B627B6A83F31188FB6A5D
:1050F80018463037BD4680BD80B58CB000AF7860AB
:1051080039607B68BB62BB6A002B09D14FF003038F
:1051180083F31188BFF36F8FBFF34F8FFB60FEE7F8
:105128003B68002B03D1BB6A1B6C002B01D1012308
:1051380000E00023002B09D14FF0030383F311880B
:10514800BFF36F8FBFF34F8F3B61FEE7BB6A1B6CEA
:10515800002B09D14FF0030383F31188BFF36F8F3E
:10516800BFF34F8F7B61FEE702F0CAFBEFF31182BA
:105178004FF0030383F31188BFF36F8FBFF34F8F93
:10518800BA61BB60BB693B62BB6A9B6B002B0CD0EE
:10519800BB6ADB68FB613968B86A00F021F9BB6A51
:1051A800FA69DA600123FB6201E00023FB623B6AD3
:1051B8007B627B6A83F31188FB6A18463037BD46E9
:1051C80080BD00BF80B584B000AF78607B68002BDD
:1051D80009D14FF0030383F31188BFF36F8FBFF337
:1051E8004F8FBB60FEE702F0C3FA7B689B6BFB60E6
:1051F80002F0ECFAFB6818461037BD4680BD00BFC8
:1052080080B586B000AF78607B687B617B69002BD6
:1052180009D14FF0030383F31188BFF36F8FBFF3F6
:105228004F8FFB60FEE702F0A3FA7B69DA6B7B69BC
:105238009B6BD31A3B6102F0C9FA3B6918461837D1
:10524800BD4680BD80B485B000AF78607B68002B18
:1052580009D14FF0030383F31188BFF36F8FBFF3B6
:105268004F8FBB60FEE77B689B6BFB60FB68184653
:105278001437BD465DF8047B704700BF80B584B025
:1052880000AF78607B68FB60FB68002B09D14FF0AA
:10529800030383F31188BFF36F8FBFF34F8FBB6096
:1052A800FEE7F86800F0AAF9F86802F039F900BFDB
:1052B8001037BD4680BD00BF80B483B000AF7860B2
:1052C8007B68DB6C18460C37BD465DF8047B70477D
:1052D80080B483B000AF786039607B683A68DA647C
:1052E80000BF0C37BD465DF8047B704780B483B0BF
:1052F80000AF78607B6893F8503018460C37BD468D
:105308005DF8047B704700BF80B586B000AFF860D9
:10531800B9607A6000237B61FB681B6C002B0DD1A0
:10532800FB681B68002B50D1FB685B68184601F0CE
:1053380059FD7861FB6800225A6046E07B68002BC3
:1053480019D1FB689868FB681B6C1A46B96802F0AB
:10535800CFFBFB689A68FB681B6C1A44FB689A6071
:10536800FB689A68FB685B689A422ED3FB681A68E8
:10537800FB689A6029E0FB68D868FB681B6C1A46D2
:10538800B96802F0B5FBFB68DA68FB681B6C5B4226
:105398001A44FB68DA60FB68DA68FB681B689A42A3
:1053A80007D2FB685A68FB681B6C5B421A44FB68AF
:1053B800DA607B68022B08D1FB689B6B002B04D05A
:1053C800FB689B6B5A1EFB689A63FB689B6B5A1CB5
:1053D800FB689A637B6918461837BD4680BD00BFD5
:1053E80080B582B000AF786039607B681B6C002B99
:1053F80018D07B68DA687B681B6C1A447B68DA60B3
:105408007B68DA687B685B689A4203D37B681A68B2
:105418007B68DA607B68D9687B681B6C1A463868D9
:1054280002F066FB00BF0837BD4680BD80B582B07C
:1054380000AF786002F09CF912E07B685B6A002B91
:1054480013D07B682433184601F090F80346002BEC
:1054580001D001F0D5F97B689B6C5A1E7B689A6471
:105468007B689B6C002BE8DC00E000BF7B684FF09A
:10547800FF329A6402F0AAF902F07AF912E07B6826
:105488001B69002B13D07B681033184601F06EF8A7
:105498000346002B01D001F0B3F97B685B6C5A1E00
:1054A8007B685A647B685B6C002BE8DC00E000BF1B
:1054B8007B684FF0FF325A6402F088F900BF083762
:1054C800BD4680BD80B584B000AF786002F050F969
:1054D8007B689B6B002B02D10123FB6001E000235A
:1054E800FB6002F073F9FB6818461037BD4680BDB3
:1054F80080B485B000AF78607B68002B09D14FF08D
:10550800030383F31188BFF36F8FBFF34F8FBB6023
:10551800FEE77B689B6B002B02D10123FB6001E057
:105528000023FB60FB6818461437BD465DF8047B12
:10553800704700BF80B584B000AF786002F018F9FA
:105548007B689A6B7B68DB6B9A4202D10123FB6014
:1055580001E00023FB6002F039F9FB6818461037B8
:10556800BD4680BD80B485B000AF78607B68002BF5
:1055780009D14FF0030383F31188BFF36F8FBFF393
:105588004F8FBB60FEE77B689A6B7B68DB6B9A4248
:1055980002D10123FB6001E00023FB60FB68184691
:1055A8001437BD465DF8047B704700BF80B485B0F2
:1055B80000AF786039600023FB6014E00E4AFB6896
:1055C80052F83330002B0BD10B49FB683A6841F88D
:1055D8003320094AFB68DB0013447A685A6005E007
:1055E800FB680133FB60FB68072BE7D900BF143762
:1055F800BD465DF8047B7047540A002080B485B02E
:1056080000AF78600023FB6010E00D4AFB68DB0008
:1056180013445A687B689A4205D1094AFB680021FD
:1056280042F8331005E0FB680133FB60FB68072B89
:10563800EBD900BF1437BD465DF8047B704700BF47
:10564800540A002080B58CB002AFF860B9603B60A6
:105658001346FB80FB68002B09D14FF0030383F34B
:105668001188BFF36F8FBFF34F8F3B61FEE73B6B32
:10567800042B09D94FF0030383F31188BFF36F8F0D
:10568800BFF34F8F7B61FEE7FB88B96B184601F0CB
:105698000FFA38623B6A002B78D03B6A1A6BFB889A
:1056A80003F18043013B9B001344FB61FB6923F03A
:1056B8000703FB61FB6903F00703002B09D04FF0D8
:1056C800030383F31188BFF36F8FBFF34F8FBB6161
:1056D800FEE7FB880093FB6B3A6BB968386A01F008
:1056E800DDF83A68F968F86901F02CFF02463B6A70
:1056F8001A607B6B002B02D07B6B3A6A1A6002F04F
:1057080037F8314B1B6801332F4A13602F4B1B6846
:10571800002B09D12D4A3B6A13602B4B1B68012BC8
:105728000FD101F013F90CE0294B1B68002B08D1AD
:10573800264B1B68DA6A3B6B9A4202D8234A3B6ABB
:105748001360244B1B680133224A1360214B1A68EB
:105758003B6A1A643B6ADB6A01229A401E4B1B684B
:1057680013431D4A13603B6ADA6A13469B001344CD
:105778009B001A4A1A443B6A04331946104602F041
:105788002FF901237B6202F021F802E04FF0FF338A
:105798007B627B6A012B11D10D4B1B68002B0DD04E
:1057A8000A4B1B68DA6A3B6B9A4207D20C4B4FF0E4
:1057B80080521A60BFF34F8FBFF36F8F7B6A184612
:1057C8002837BD4680BD00BF48090020700800206A
:1057D80054090020640900205009002074080020A2
:1057E80004ED00E080B584B000AF786001F0C0FF40
:1057F8007B68002B02D1344B1B6800E07B68FB60A0
:10580800FB680433184602F049F90346002B15D10A
:10581800FB68DA6A2D4913469B0013449B000B442E
:105828001B68002B0AD1FB68DB6A012202FA03F32A
:10583800DA43274B1B681340254A1360FB689B6AB1
:10584800002B04D0FB681833184602F027F9FB68D0
:10585800043319461F4802F0C3F81F4B1B68013375
:105868001D4A13601D4B1B6801331C4A136001F06D
:10587800ADFF1B4B1B68002B21D0134B1B68FA682C
:105888009A4216D1174B1B68002B09D04FF003031F
:1058980083F31188BFF36F8FBFF34F8FBB60FEE7B1
:1058A800114B4FF080521A60BFF34F8FBFF36F8FC9
:1058B80005E001F05DFF01F0E9F901F087FF00BFA5
:1058C8001037BD4680BD00BF700800207408002056
:1058D800500900201C09002030090020640900201C
:1058E800540900206809002004ED00E080B58AB062
:1058F80000AF7860396000237B627B68002B09D198
:105908004FF0030383F31188BFF36F8FBFF34F8FFB
:10591800FB60FEE73B68002B09D14FF0030383F3DC
:105928001188BFF36F8FBFF34F8F3B61FEE7324B98
:105938001B68002B09D04FF0030383F31188BFF3D2
:105948006F8FBFF34F8F7B61FEE700F097FA2B4B09
:105958001B683B627B681A683B681344FB617B6881
:105968001A683B6A9A420BD97B681A68FB699A42A3
:1059780011D9FA693B6A9A420DD901237B620AE080
:105988007B681A68FB699A4203D8FA693B6A9A42AB
:1059980001D901237B627B68FA691A607B6A002B54
:1059A80017D0174B1B680433184602F077F80346E4
:1059B800002B0BD1124B1B68DB6A012202FA03F39E
:1059C800DA43104B1B6813400E4A1360F86901F064
:1059D80039F800F061FAB861BB69002B07D10A4BAE
:1059E8004FF080521A60BFF34F8FBFF36F8F00BF25
:1059F8002837BD4680BD00BF680900204C0900203B
:105A0800700800205009002004ED00E080B586B041
:105A180000AF786000237B617B68002B2FD01F4B81
:105A28001B68002B09D04FF0030383F31188BFF3E1
:105A38006F8FBFF34F8FFB60FEE700F01FFA184B24
:105A48001A687B6813443B61164B1B68043318467D
:105A580002F024F80346002B0BD1124B1B68DB6ABB
:105A6800012202FA03F3DA430F4B1B6813400E4A74
:105A78001360386900F0E6FF00F00EFA78617B6980
:105A8800002B07D1094B4FF080521A60BFF34F8F9C
:105A9800BFF36F8F00BF1837BD4680BD680900206F
:105AA8004C090020700800205009002004ED00E097
:105AB80080B584B000AF786001F05AFE7B68002B97
:105AC80002D1374B1B6800E07B68FB60FB6804333E
