:020000040800F2
:1000000000000220956C0008890100089901000891
:10001000A1010008A9010008B101000800000000CA
:1000200000000000000000000000000089670008D8
:10003000B901000800000000C1690008256A000835
:10004000D96C0008D96C0008D96C0008D96C00087C
:10005000D96C0008D96C0008D96C0008D96C00086C
:10006000D96C0008D96C0008D96C0008C9010008D7
:10007000D96C0008D96C0008D96C0008D96C00084C
:10008000D96C0008D96C0008D96C0008D96C00083C
:10009000D96C0008D96C0008D96C0008D96C00082C
:1000A000D96C0008D96C0008D96C0008D96C00081C
:1000B000D96C0008D96C0008D96C0008D96C00080C
:1000C000D96C0008D96C0008D96C0008D96C0008FC
:1000D000D96C0008D96C0008D96C0008D96C0008EC
:1000E000D96C0008D96C0008D96C0008D96C0008DC
:1000F000D96C0008D96C0008D96C0008D96C0008CC
:10010000D96C0008D96C0008D96C0008D96C0008BB
:10011000D96C0008D96C0008D96C0008D96C0008AB
:10012000D96C0008D96C0008D96C0008D96C00089B
:10013000D96C0008D96C0008D96C0008D96C00088B
:10014000D96C0008D96C0008D96C0008D96C00087B
:10015000D96C0008D96C0008D96C0008D96C00086B
:10016000D96C0008D96C0008D96C0008D96C00085B
:10017000D96C0008D96C0008D96C0008D96C00084B
:08018000D96C0008D96C0008DD
:1001880080B400AF00BFBD465DF8047B704700BF78
:1001980080B400AFFEE700BF80B400AFFEE700BF49
:1001A80080B400AFFEE700BF80B400AFFEE700BF39
:1001B80080B400AF00BFBD465DF8047B704700BF48
:1001C80080B582B000AF5449544804F013F8034690
:1001D800002B00F09C805049504804F063F84621F9
:1001E8004F4803F061FA00BF80214D4803F04CFCF2
:1001F8000346002BF8D0B921494803F055FA00BF4F
:100208008021474803F040FC0346002BF8D06821C2
:10021800434803F049FA00BF8021414803F034FC09
:100228000346002BF8D03D4803F0FEFE38603B68DB
:10023800012B2ED100237B6028E07B685B00394AC4
:1002480032F813301B0A9BB21946354803F02CFAD2
:1002580000BF8021324803F017FC0346002BF8D07A
:100268007B685B002F4A32F81330DBB29BB2194629
:100278002B4803F019FA00BF8021294803F004FC39
:100288000346002BF8D07B6801337B607B680F2B1B
:10029800D3D93B68002B2ED100237B6028E07B68F4
:1002A8005B00214A32F813301B0A9BB219461C48DE
:1002B80003F0FAF900BF8021194803F0E5FB034673
:1002C800002BF8D07B685B00174A32F81330DBB29A
:1002D8009BB21946124803F0E7F900BF8021104885
:1002E80003F0D2FB0346002BF8D07B6801337B6018
:1002F8007B680F2BD3D91621094803F0D5F900BF25
:100308008021074803F0C0FB0346002BF8D000BF4C
:100318000837BD4680BD00BF208000101060024035
:1003280000440040D0090020100A002080B500AF2A
:10033800164A164BD3F8883043F47003C2F8883055
:10034800134A134B1B6843F001031360104B002240
:100358009A600F4A0E4B1B6823F0847323F4803392
:1003680013600B4B0B4A5A60094A094B1B6823F46C
:1003780080231360064B0022DA6000F08BF8034BF1
:100388004FF000629A6000BF80BD00BF00ED00E042
:10039800003802401030002480B487B000AF00233A
:1003A8003B6100237B610223FB600023BB600223C7
:1003B8007B60334B9B6803F00C033B613B69042B68
:1003C80007D0082B09D0002B3FD12E4B2E4A1A609C
:1003D8003FE02C4B2D4A1A603BE0294B5B6803F445
:1003E80080039B0DBB60264B5B6803F03F037B607B
:1003F800BB68002B0DD0254A7B68B2FBF3F2204B7B
:10040800596847F6C0730B409B0903FB02F37B61F5
:100418000CE01D4A7B68B2FBF3F2194B596847F6AA
:10042800C0730B409B0903FB02F37B61144B5B68B1
:1004380003F440331B0C01335B00FB607A69FB68F3
:10044800B2FBF3F30F4A136003E00E4B0E4A1A6037
:1004580000BF0B4B9B6803F0F0031B090C4AD35CED
:10046800DBB23B61074B1A683B6922FA03F3054A82
:10047800136000BF1C37BD465DF8047B704700BFA2
:1004880000380240000000200024F40040787D017C
:100498000400002080B483B000AF00237B600023F9
:1004A8003B60364A354B1B6843F480331360334B4B
:1004B8001B6803F400333B607B6801337B603B6857
:1004C800002B03D17B68B3F5A04FF0D12B4B1B68F1
:1004D80003F40033002B02D001233B6001E000232A
:1004E8003B603B68012B42D1244A244B1B6C43F0F0
:1004F80080531364224A224B1B6843F44043136021
:100508001E4A1E4B9B6893601C4A1C4B9B6843F415
:1005180000439360194A194B9B6843F4A0539360B6
:10052800164B184A5A60154A144B1B6843F08073DF
:10053800136000BF114B1B6803F00073002BF9D048
:10054800114B40F205721A600C4A0C4B9B6823F061
:1005580003039360094A094B9B6843F002039360C5
:1005680000BF064B9B6803F00C03082BF9D100BFB2
:100578000C37BD465DF8047B704700BF0038024069
:1005880000700040195A4007003C024080B500AF97
:1005980000F00EF8044A05494FF4FA5000F0E6F866
:1005A80000F0FCF8FEE700BF100A0020D009002088
:1005B80080B586B000AF01214FF4003001F0FEFE97
:1005C8000121012001F09AFE07220221154804F0BA
:1005D800BDF804233B6102233B750023BB75002350
:1005E800FB7503237B7507F1100319460D4803F0CB
:1005F80039FF0D4B3B600023BB800023FB800023A9
:100608003B810023BB8108237B813B461946074871
:1006180002F0AEFE0121054802F0C6FF00BF183700
:10062800BD4680BD0000024080841E00004400409A
:1006380080B485B000AF78600B4B1B68002B02D1EB
:10064800094B0A4A1A60084B1B68FB60064B1A687C
:100658007B681344044A1360FB6818461437BD4688
:100668005DF8047B704700BF6C080020580A002022
:1006780080B483B000AF786039604FF0FF3318461C
:100688000C37BD465DF8047B704700BF80B483B06B
:1006980000AF78604FF0FF3318460C37BD465DF861
:1006A800047B704780B483B000AF786039603B68E2
:1006B8004FF400525A60002318460C37BD465DF8C7
:1006C800047B704780B483B000AF7860012318467C
:1006D8000C37BD465DF8047B704700BF80B485B019
:1006E80000AFF860B9607A60002318461437BD4639
:1006F8005DF8047B704700BF80B485B000AFF86038
:10070800B9607A60002318461437BD465DF8047B4B
:10071800704700BF80B400AFFEE700BF80B586B069
:1007280000AFF860B9607A600023FB8213E0BB6811
:100738005A1CBA601B789BB219460B4802F0B4FFEA
:1007480000BF4021084803F09FF90346002BF8D06A
:10075800FB8A0133FB82FA8A7B689A42E7DB7B6873
:1007680018461837BD4680BD0044004080B584B0A7
:1007780000AFF860B9607A60F86800F015F80346D1
:100788000B2B01D0002304E07968B86800F0EEFA7A
:10079800012318461037BD4680BD00BF80B500AFA5
:1007A80000F054FB00BF80BD80B584B000AF786016
:1007B8000023FB6000F01CFA0121002000F08CF9F6
:1007C8000246FB681344FB600D21012000F084F908
:1007D8000246FB681344FB604FF47A71A82000F0CE
:1007E80089FA1D21012000F077F90246FB681344BD
:1007F800FB601421022000F06FF90246FB681344E5
:10080800FB600A21A82000F075FA1521022000F0EB
:1008180063F90246FB681344FB601021042000F0D2
:100828005BF90246FB681344FB600021062000F0D8
:1008380053F90246FB681344FB600A21072000F0C5
:100848004BF90246FB681344FB6003212C2000F09F
:1008580043F90246FB681344FB6023212D2000F076
:100868003BF90246FB681344FB604FF4A0712F204C
:1008780000F032F90246FB681344FB60786800F028
:10088800EFF8FB6818461037BD4680BD80B400AF4E
:1008980000231846BD465DF8047B704780B400AF5E
:1008A80000231846BD465DF8047B704780B483B0CA
:1008B80000AF7860002318460C37BD465DF8047B0E
:1008C800704700BF80B483B000AF7860002318463B
:1008D8000C37BD465DF8047B704700BF80B483B019
:1008E80000AF0346FB71002318460C37BD465DF880
:1008F800047B704780B483B000AF7860002318464B
:100908000C37BD465DF8047B704700BF80B598B0D2
:1009180000AF78600B46FB700121022001F0EEFC6D
:100928000121022001F0EAFC01214FF4001001F03E
:1009380045FD01214FF4001001F0E0FC4FF48073F5
:10094800BB64022387F84C30022387F84D3001231B
:1009580087F84E30012387F84F3007F148031946CE
:10096800364803F07FFD4FF40073BB6407F148037A
:100978001946324803F076FD042208212F4803F077
:10098800E5FE042209212D4803F0E0FE2C4B3B65CF
:100998000023A7F854304BF6FF73A7F856303223DC
:1009A800A7F858304FF48063A7F85A304FF48043C3
:1009B800A7F85C3007F150031946224801F072FF8E
:1009C8000021214803F06CFA1F4803F005F94FF0A5
:1009D8000073FB601D4B3B6100233B624FF4806357
:1009E8007B620023BB620023FB6200233B634FF45E
:1009F80040337B630423BB630323FB6300233B6413
:100A080000237B644023BB617B687B61FB78FB61CF
:100A18000D4803F0E1F807F10C0319460A4803F002
:100A2800AFF90121074802F03FF80F21054802F00D
:100A38005BF800BF6037BD4680BD00BF00040240C0
:100A4800A086010000540040A060024010540040FD
:100A580080B400AF00BFBD465DF8047B704700BF9F
:100A680080B586B000AF786001214FF4004001F0F6
:100A7800A5FC002001F088FB012001F081F90D4858
:100A880000F002FC4FF440733B817B683B6100231C
:100A98007B814FF40073FB810023BB820023BB8161
:100AA80007F108031946034800F0A0FC00BF1837F7
:100AB800BD4680BD003C004080B400AF00BFBD46CD
:100AC8005DF8047B704700BF80B400AF00BFBD462F
:100AD8005DF8047B704700BF80B584B000AF034663
:100AE8000A46FB711346BB80FB795B00DAB2BB8810
:100AF8001B0A9BB2DBB21343DBB2DBB23B73BB888E
:100B0800DBB27B7307F10C0302211846FFF7FEFEE8
:100B180001212A4801F0A8FF0121284802F004F821
:100B280000BF2749254802F0B3FA0346002BF8D046
:100B380000223421214802F037F800BF21491F481C
:100B480002F0A6FA0346002BF8D001211B4802F058
:100B580023FA01211C4803F0A3F900BF1B491A48D6
:100B680003F0A4FA0346002BF8D00021134802F042
:100B780013FA00BF1649114802F0DCFA0346002BAD
:100B8800F8D001210D4801F0EFFF00210E4803F0D5
:100B980087F900BF0C4803F05FFA0346002BF9D130
:100BA8000C49094803F0BEFA00214FF4001001F087
:100BB800A5FB012318461037BD4680BD00540040F0
:100BC8000100030082000700A0600240000020200E
:100BD8000400001000003D2080B483B000AF03463D
:100BE800FB71002318460C37BD465DF8047B70473F
:100BF80080B582B000AF0121072001F07FFB0422FD
:100C08000821354803F0A2FD04220921324803F0E7
:100C18009DFD4FF480733B6002233B7102237B717F
:100C28000123BB710123FB713B4619462A4803F097
:100C380019FC4FF400733B603B461946264803F005
:100C480011FC06220F21254803F080FD062203210E
:100C5800214803F07BFD062205211F4803F076FD9D
:100C6800062207211E4803F071FD06220B211C48AD
:100C780003F06CFD02233B7102237B710023BB71DF
:100C88000023FB714FF400433B603B461946134871
:100C980003F0E8FB08233B603B4619460E4803F087
:100CA800E1FB20233B603B4619460B4803F0DAFB87
:100CB80080233B603B461946094803F0D3FB4FF4B9
:100CC80000633B603B461946054803F0CBFB00BF79
:100CD8000837BD4680BD00BF000402400000024046
:100CE8000008024080B400AF00BFBD465DF8047B39
:100CF800704700BF80B487B000AF786039601A4A87
:100D0800194B1B6823F0040313607B68DB087B61C5
:100D18007B694FF47A7202FB03F33B6112493B682B
:100D28003A6902FB03F34B600F4B00229A600E4BAB
:100D380001221A600C4B1B68FB60FB6803F001037F
:100D4800002B04D0FB6803F48033002BF2D0064B51
:100D580000221A60044B00229A60012318461C37AF
:100D6800BD465DF8047B704710E000E080B592B0A6
:100D780000AF7860396001214FF4001001F0BEFA2D
:100D88002B4802F029FF00BF294803F065F9034604
:100D9800002BF9D10023FB60264B3B617B687B610C
:100DA8000023BB612023FB6100233B624FF4806377
:100DB8007B624FF40063BB624FF40053FB624FF455
:100DC80080733B634FF400337B630023BB630323CF
:100DD800FB6300233B6400237B6407F10C03194683
:100DE800134802F0CDFF01221021114803F0C8F981
:100DF8003B68002219460E4803F0C4F801210C484C
:100E080003F0E0F80B233B7200237B720023BB72D4
:100E18000123FB7207F10803184600F07FF901224D
:100E28000121054800F0B8FD00BF4837BD4680BD28
:100E3800106002400C3C0040003C004080B400AF11
:100E480000BFBD465DF8047B704700BF80B500AFAA
:100E58000121044803F024F80121034800F016FC9E
:100E680000BF80BD10600240003C004080B483B0E9
:100E780000AF7860396000BF0C37BD465DF8047B71
:100E8800704700BF80B400AF00BFBD465DF8047B6B
:100E9800704700BF80B483B000AF7860174B022260
:100EA8001A70164B0D225A70144B04229A70134B69
:100EB8000122DA70114B06221A71104B40225A7126
:100EC8000F4B0E4A1A600E4B02221A710C4B0D4A38
:100ED8009A600B4B02221A73094B0B4A1A61084B92
:100EE80002221A75094B064A1A60084B03221A7126
:100EF80000BF0C37BD465DF8047B7047A809002089
:100F0800B8090020AA090020AC090020B009002077
:100F180080B586B000AF01214FF4004001F04EFAD1
:100F2800002001F031F9012000F02AFF01210720FB
:100F380001F0E4F906220F21364803F007FC0622E7
:100F48000321354803F002FC06220521324803F04C
:100F5800FDFB06220721314803F0F8FB06220B218E
:100F68002E4803F0F3FB02233B7502237B75002315
:100F7800BB750023FB754FF400433B6107F1100379
:100F88001946244803F06EFA08233B6107F1100361
:100F98001946214803F066FA20233B6107F1100344
:100FA80019461D4803F05EFA80233B6107F11003E0
:100FB80019461A4803F056FA4FF400633B6107F1EB
:100FC80010031946154803F04DFA154800F05CF96E
:100FD8004FF440733B804FF4FA53BB6000237B808F
:100FE8004FF40073FB800023BB810023BB803B468A
:100FF80019460B4800F0FAF901220121084800F0CF
:10100800CBFC0121064800F041FB00BF1837BD4664
:1010180080BD00BF000002400004024000080240FA
:10102800003C004080B592B000AF78603960012183
:101038004FF4001001F062F9224802F0CDFD00BF24
:10104800204803F009F80346002BF9D10023FB6080
:101058001D4B3B617B687B610023BB612023FB61E7
:1010680000233B624FF480637B624FF40063BB62F2
:101078004FF40053FB624FF480733B634FF400332B
:101088007B630023BB630323FB6300233B640023D0
:101098007B6407F10C0319460A4802F071FE01222D
:1010A8001021084803F06CF83B68002219460548EF
:1010B80002F068FF0121034802F084FF00BF4837AF
:1010C800BD4680BD106002400C3C004080B582B037
:1010D80000AF0B233B7100237B710023BB710123FD
:1010E800FB713B1D184600F019F800BF0837BD46D4
:1010F80080BD00BF80B483B000AF7860064A7B68CB
:1011080043F0BF6343F40033D36000BF0C37BD46E0
:101118005DF8047B704700BF00ED00E080B485B047
:1011280000AF78600023FB730023BB730F237B732E
:101138007B68DB78002B38D0274BDB68DB4303F474
:10114800E0631B0AFB73FB7BC3F10403BB737A7B6D
:10115800FB7B42FA03F37B737B685B781A46BB7BA5
:1011680002FA03F3FB737B689A787B7B1340DAB24D
:10117800FB7B1343FB73FB7B1B01FB73174A7B68E9
:101188001B781344FA7B83F80023144A7B681B7886
:101198005B09DBB218467B681B7803F01F0301214B
:1011A80001FA03F342F820300FE00C497B681B7802
:1011B8005B09DBB218467B681B7803F01F0301222A
:1011C8009A4000F1200341F8232000BF1437BD46A0
:1011D8005DF8047B704700BF00ED00E000E100E02F
:1011E80080B483B000AF7860396007493B6823F06A
:1011F800604323F07F037A6813438B6000BF0C378A
:10120800BD465DF8047B704700ED00E080B483B014
:1012180000AF03460A46FB711346BB71BB79002B2E
:1012280006D00A49094B1A69FB7913430B6106E09A
:101238000649064B1A69FB79DB4313400B6100BF73
:101248000C37BD465DF8047B704700BF00ED00E039
:1012580080B483B000AF78607B68042B06D1094A5C
:10126800084B1B6843F00403136005E0054A054B6F
:101278001B6823F00403136000BF0C37BD465DF8FC
:10128800047B704710E000E080B582B000AF786062
:101298007B682E4A93420AD101214FF4805001F015
:1012A8004DF900214FF4805001F048F949E07B687E
:1012B800274A93420AD101214FF4804001F01EF9D8
:1012C80000214FF4804001F019F93AE07B68214A87
:1012D80093420AD101214FF4004001F00FF9002197
:1012E8004FF4004001F00AF92BE07B681A4A934258
:1012F8000AD101214FF4005001F020F900214FF4E8
:10130800005001F01BF91CE07B68144A93420AD193
:1013180001214FF4801001F011F900214FF48010E1
:1013280001F00CF90DE07B680D4A934209D10121C7
:101338004FF4001001F002F900214FF4001001F001
:10134800FDF800BF0837BD4680BD00BF0030014032
:1013580000380040003C004000340140005001408B
:101368000054014080B485B000AF78603960002334
:10137800FB817B681B88FB81FB8903F44153FB815C
:101388003B681A883B685B8813439AB23B689B8822
:1013980013439AB23B68DB8813439AB23B681B89B4
:1013A80013439AB23B685B8913439AB23B689B89A3
:1013B80013439AB23B68DB8913439AB2FB89134300
:1013C800FB817B68FA891A807B689B8B9BB223F42C
:1013D80000639AB27B689A833B681A8A7B681A8290
:1013E80000BF1437BD465DF8047B704780B48BB0EE
:1013F80000AF786039600023FB820223FB8400235E
:10140800BB8401237B840023FB610023BB61002391
:101418003B610023FB600023BB607B689B8B9BB216
:1014280023F47B6323F00F039AB27B689A837B686B
:1014380002221A847B689B8BFB823B689B68022B89
:1014480004D10023BB840223FB8484E03B689B888F
:10145800002B02D101237B8401E002237B84564BBD
:101468009B6803F40003002B05D0534A524B9B683A
:1014780023F400039360504BD3F8842047F6C073DD
:1014880013409B09C3F30803FB604B4BD3F884302C
:1014980003F0E0431B0F03F00703BB60464B5B6898
:1014A80003F03F033B61444B5B6803F48003002B6C
:1014B8000BD0424A3B69B2FBF3F3FA6802FB03F232
:1014C800BB68B2FBF3F3BB610AE03D4A3B69B2FB80
:1014D800F3F3FA6802FB03F2BB68B2FBF3F3BB61F8
:1014E8003B68DB88B3F5007F0FD1BB691A0A134646
:1014F8009B0013445B001A463B689B68B2FBF3F3FE
:101508009BB205339BB2FB6112E07B8C5B011A46F0
:10151800BB69B3FBF2F213469B0013445B001A4607
:101528003B689B68B2FBF3F39BB205339BB2FB614C
:10153800FB69244AA2FB0323DB08FB61FB699BB21E
:1015480003F00103BB84BB8CFA69D31A5B08FB84E4
:10155800BB8C1B02BB84FB8C012B02D9FB8CFF2BA1
:1015680003D90223FB840023BB843B68DA88BB8C45
:1015780013439AB2FB8C13439AB27B681A843B6874
:101588001A883B6859883B6898883B689B8903435D
:101598009BB20B439BB213439AB2FB8A13439BB291
:1015A80043F40063FB827B68FA8A9A8300BF2C3776
:1015B800BD465DF8047B70470038024040787D01E5
:1015C8000024F400CDCCCCCC80B483B000AF7860DC
:1015D8007B6800221A807B6800225A807B68002280
:1015E8009A807B680022DA807B6800221A817B68F7
:1015F80000225A817B6800229A817B680022DA8166
:101608007B6807221A8200BF0C37BD465DF8047B51
:10161800704700BF80B483B000AF78607B68002259
:101628001A807B6800225A807B6800229A807B6837
:101638000022DA807B6802229A607B6800229A8105
:1016480000BF0C37BD465DF8047B704780B483B09B
:1016580000AF78600B46FB70FB78002B08D07B68E6
:101668001B889BB243F040039AB27B681A8007E05C
:101678007B681B889BB223F040039AB27B681A8070
:1016880000BF0C37BD465DF8047B704780B483B05B
:1016980000AF78600B46FB70FB78002B08D07B68A6
:1016A8009B8B9BB243F480639AB27B689A8307E072
:1016B8007B689B8B9BB223F480639AB27B689A8386
:1016C80000BF0C37BD465DF8047B704780B483B01B
:1016D80000AF78600B467B807B681B889BB223F445
:1016E80000639AB27B681A807B681B889AB27B88F1
:1016F80013439AB27B681A8000BF0C37BD465DF869
:10170800047B704780B483B000AF78600B467B8061
:101718007B88B3F5804F08D17B681B889BB243F464
:1017280080439AB27B681A8007E07B681B889BB26B
:1017380023F480439AB27B681A8000BF0C37BD46F9
:101748005DF8047B704700BF80B483B000AF786059
:101758000B467B807B884FF6FF62934208D07B68FC
:101768001B889BB243F480739AB27B681A8007E0A7
:101778007B681B889BB223F480739AB27B681A80BB
:1017880000BF0C37BD465DF8047B704780B483B05A
:1017980000AF78600B46FB70FB78002B08D07B68A5
:1017A8009B889BB243F004039AB27B689A8007E057
:1017B8007B689B889BB223F004039AB27B689A806B
:1017C80000BF0C37BD465DF8047B704780B483B01A
:1017D80000AF78600B46FB70FB78002B08D07B6865
:1017E8009B889BB243F010039AB27B689A8007E00B
:1017F8007B689B889BB223F010039AB27B689A801F
:1018080000BF0C37BD465DF8047B704780B485B0D7
:1018180000AF786039600023BB810023FB817B68BF
:101828009B8B9BB223F47B6323F00F039AB27B68F4
:101838009A837B6802221A847B689B8BBB813B68F6
:101848001B88B3F5007F03D03B681B88002B03D1AE
:101858004FF48073FB810BE03B681B88B3F5407F36
:1018680004D03B681B88B3F5807F01D10023FB813E
:101878003B685A883B6899883B689B890B439BB2B5
:1018880013439AB2FB8913439AB2BB8913439BB2A1
:1018980043F40063BB817B68BA899A8300BF14371D
:1018A800BD465DF8047B704780B483B000AF7860B4
:1018B8007B689B899BB218460C37BD465DF8047B54
:1018C800704700BF80B483B000AF78600B467B8060
:1018D8007B687A889A8100BF0C37BD465DF8047B27
:1018E800704700BF80B483B000AF78600B46FB70D0
:1018F800FB78002B08D07B681B889BB243F400530D
:101908009AB27B681A8007E07B681B889BB223F435
:1019180000539AB27B681A8000BF0C37BD465DF849
:10192800047B704780B483B000AF78607B681B8805
:101938009BB243F480539AB27B681A8000BF0C377D
:10194800BD465DF8047B704780B485B000AF786011
:101958000B46FB700023FB81FB78012B03D07B68CF
:101968001B8BFB8102E07B689B8AFB81FB89184605
:101978001437BD465DF8047B704700BF80B483B060
:1019880000AF78607B681B8A9BB218460C37BD464F
:101998005DF8047B704700BF80B483B000AF786007
:1019A8000B467B8013467B707B78002B08D07B68C6
:1019B8009B889AB27B8813439AB27B689A8009E025
:1019C8007B689B889AB27B88DB439BB213409AB2B0
:1019D8007B689A8000BF0C37BD465DF8047B704772
:1019E80080B485B000AF78600B46FB701346BB70BF
:1019F8000023FB810023BB81FB781B09DBB2FB8141
:101A0800FB89012202FA03F3BB81BB78002B08D0C3
:101A18007B689B889AB2BB8913439AB27B689A8089
:101A280009E07B689B889AB2BB89DB439BB2134071
:101A38009AB27B689A8000BF1437BD465DF8047B74
:101A4800704700BF80B485B000AF78600B467B80DC
:101A58000023FB737B681B899AB27B8813409BB277
:101A6800002B02D00123FB7301E00023FB73FB7BF7
:101A780018461437BD465DF8047B704780B483B0C0
:101A880000AF78600B467B807B88DB439AB27B682B
:101A98001A8100BF0C37BD465DF8047B704700BF54
:101AA80080B485B000AF78600B46FB700023FB73F1
:101AB8000023BB8100237B8100233B81FB7803F05B
:101AC8000F03012202FA03F3BB81FB781B09DBB287
:101AD8007B817B89012202FA03F37B817B689B88E7
:101AE8009AB27B8913403B817B681B899AB2BB8978
:101AF80013409BB2002B05D03B89002B02D0012359
:101B0800FB7301E00023FB73FB7B18461437BD46CB
:101B18005DF8047B704700BF80B485B000AF786083
:101B28000B46FB700023FB81FB7803F00F030122B7
:101B380002FA03F3FB81FB89DB439AB27B681A81C3
:101B480000BF1437BD465DF8047B704780B400AF12
:101B5800164A164B1B6843F001031360134B00220F
:101B68009A60124A114B1B6823F0A85323F41023E0
:101B780013600E4B0E4A5A600C4B0E4AC3F8842071
:101B88000A4B0D4AC3F88820084A084B1B6823F4FF
:101B980080231360054B0022DA60044B0022C3F84F
:101BA8008C2000BFBD465DF8047B704700380240BA
:101BB80010300024003000200030002480B483B0AE
:101BC80000AF0346FB71064B00221A70044AFB79EA
:101BD800137000BF0C37BD465DF8047B704700BF2B
:101BE8000238024080B582B000AF00233B6000237A
:101BF800FB710023BB71312000F0A4FD0346BB71CB
:101C08003B6801333B603B68B3F5A04F02D0BB791A
:101C1800002BF0D0312000F095FD0346002B02D0B8
:101C28000123FB7101E00023FB71FB79184608379B
:101C3800BD4680BD80B485B000AF0346FB7100236C
:101C4800FB600A4B1B68FB60FB6823F0F803FB6032
:101C5800FB79DB00FA681343FB60044AFB681360F6
:101C680000BF1437BD465DF8047B7047003802405A
:101C780080B483B000AF0346FB71044AFB7913605C
:101C880000BF0C37BD465DF8047B70470000474233
:101C980080B483B000AF0346FB710D4B00221A706D
:101CA8000B4B00221A70FB79012B02D0042B04D0B5
:101CB80007E0074B01221A7003E0054B05221A7052
:101CC80000BF00BF0C37BD465DF8047B704700BFFE
:101CD8007038024080B483B000AF0346FB71044AF9
:101CE800FB79136000BF0C37BD465DF8047B704775
:101CF800800E474280B485B000AFF860B9607A6062
:101D08003B600B497B689A01BB681A433B685B08D8
:101D1800013B1B041A43FB681A43BB691B061343A8
:101D28004B6000BF1437BD465DF8047B704700BFA9
:101D38000038024080B483B000AF0346FB71044A08
:101D4800FB79136000BF0C37BD465DF8047B704714
:101D58006000474280B483B000AF786039600749BB
:101D68007B689A013B681B071343C1F8843000BFA6
:101D78000C37BD465DF8047B704700BF0038024051
:101D880080B483B000AF0346FB71044AFB7913604B
:101D980000BF0C37BD465DF8047B704768004742BA
:101DA80080B485B000AFF860B9607A600849FB6814
:101DB8009A01BB681B061A437B681B071343C1F8CB
:101DC800883000BF1437BD465DF8047B704700BFFC
:101DD8000038024080B483B000AF0346FB71044A68
:101DE800FB79136000BF0C37BD465DF8047B704774
:101DF8007000474280B483B000AF0346FB71044AC9
:101E0800FB79136000BF0C37BD465DF8047B704753
:101E18004C00474280B485B000AF78603960002339
:101E2800FB600B4B9B68FB60FB6823F0EC63FB607B
:101E38007A683B681343FA681343FB60044AFB68FB
:101E4800936000BF1437BD465DF8047B704700BF40
:101E58000038024080B485B000AF78603960002354
:101E6800FB600B4B9B68FB60FB6823F07843FB60CF
:101E78007A683B681343FA681343FB60044AFB68BB
:101E8800936000BF1437BD465DF8047B704700BF00
:101E98000038024080B485B000AF78600023FB6052
:101EA800094B9B68FB60FB6823F00303FB60FA683F
:101EB8007B681343FB60044AFB68936000BF1437D8
:101EC800BD465DF8047B70470038024080B400AF1F
:101ED800054B9B68DBB203F00C03DBB21846BD462A
:101EE8005DF8047B704700BF0038024080B485B0BD
:101EF80000AF78600023FB60094B9B68FB60FB68C0
:101F080023F0F003FB60FA687B681343FB60044A24
:101F1800FB68936000BF1437BD465DF8047B7047CB
:101F28000038024080B485B000AF78600023FB60C1
:101F3800094B9B68FB60FB6823F4E053FB60FA687D
:101F48007B681343FB60044AFB68936000BF143747
:101F5800BD465DF8047B70470038024080B485B008
:101F680000AF78600023FB600A4B9B68FB60FB684E
:101F780023F46043FB607B68DB00FA681343FB6073
:101F8800044AFB68936000BF1437BD465DF8047BC4
:101F9800704700BF0038024080B489B000AF786055
:101FA8000023BB6100237B610023FB6102233B61AB
:101FB8000023FB600223BB60484B9B6803F00C03C3
:101FC800BB61BB69042B07D0082B09D0002B3FD17C
:101FD8007B68434A1A603FE07B68424A1A603BE0EC
:101FE8003E4B5B6803F480039B0DFB603B4B5B68D7
:101FF80003F03F03BB60FB68002B0DD0394ABB6878
:10200800B2FBF3F2354B596847F6C0730B409B0996
:1020180003FB02F3FB610CE0314ABB68B2FBF3F24D
:102028002E4B596847F6C0730B409B0903FB02F31C
:10203800FB612A4B5B6803F440331B0C01335B00E4
:102048003B61FA693B69B2FBF3F27B681A6003E013
:102058007B68234A1A6000BF204B9B6803F0F0039B
:10206800BB61BB691B09BB611F4ABB6913441B7871
:10207800DBB27B617B681A687B69DA407B685A60EF
:10208800164B9B6803F4E053BB61BB699B0ABB61B9
:10209800154ABB6913441B78DBB27B617B685A68BD
:1020A8007B69DA407B689A600C4B9B6803F4604359
:1020B800BB61BB695B0BBB610B4ABB6913441B78F3
:1020C800DBB27B617B685A687B69DA407B68DA60DF
:1020D80000BF2437BD465DF8047B704700380240D6
:1020E8000024F40040787D011400002080B485B0FD
:1020F80000AF78600023FB607B6803F44073B3F59E
:10210800407F11D10F4B9B68FB60FB6823F4F813E9
:10211800FB607B6823F0704323F44073FA68134331
:10212800FB60084AFB6893600649064B1A6F7B6898
:10213800C3F30B0313430B6700BF1437BD465DF8A9
:10214800047B70470038024080B483B000AF034678
:10215800FB71044AFB79136000BF0C37BD465DF87C
:10216800047B70473C0E474280B483B000AF0346FF
:10217800FB71044AFB79136000BF0C37BD465DF85C
:10218800047B7047400E474280B483B000AF78604C
:10219800044A7B68136000BF0C37BD465DF8047BBA
:1021A800704700BF5C01474280B485B000AF7860DB
:1021B8000023FB600A4BD3F88C30FB60FB6823F4E8
:1021C8004013FB60FA687B681343FB60044AFB68B2
:1021D800C2F88C3000BF1437BD465DF8047B7047E9
:1021E8000038024080B485B000AF78600023FB60FF
:1021F8000A4BD3F88C30FB60FB6823F44003FB6088
:10220800FA687B681343FB60044AFB68C2F88C30A9
:1022180000BF1437BD465DF8047B704700380240A4
:1022280080B485B000AF78600023FB600B4BD3F817
:102238008C30FB60FB6823F01F03FB607B68013B6D
:10224800FA681343FB60054AFB68C2F88C3000BF8C
:102258001437BD465DF8047B704700BF0038024064
:1022680080B485B000AF78600023FB600B4BD3F8D7
:102278008C30FB60FB6823F4F853FB607B68013B00
:102288001B02FA681343FB60044AFB68C2F88C30EF
:1022980000BF1437BD465DF8047B70470038024024
:1022A80080B485B000AF78600023FB600A4BD3F898
:1022B8008C30FB60FB6823F44033FB60FA687B6872
:1022C8001343FB60044AFB68C2F88C3000BF143724
:1022D800BD465DF8047B70470038024080B483B087
:1022E80000AF7860044A7B68136000BF0C37BD46B6
:1022F8005DF8047B704700BFE011474280B483B0AB
:1023080000AF78600B46FB70FB78002B06D00A49BB
:10231800094B1A6B7B6813430B6306E00649064BAF
:102328001A6B7B68DB4313400B6300BF0C37BD4659
:102338005DF8047B704700BF0038024080B483B06A
:1023480000AF78600B46FB70FB78002B06D00A497B
:10235800094B5A6B7B6813434B6306E00649064BEF
:102368005A6B7B68DB4313404B6300BF0C37BD4699
:102378005DF8047B704700BF0038024080B483B02A
:1023880000AF78600B46FB70FB78002B06D00A493B
:10239800094B9A6B7B6813438B6306E00649064B2F
:1023A8009A6B7B68DB4313408B6300BF0C37BD46D9
:1023B8005DF8047B704700BF0038024080B483B0EA
:1023C80000AF78600B46FB70FB78002B06D00A49FB
:1023D800094B1A6C7B6813430B6406E00649064BED
:1023E8001A6C7B68DB4313400B6400BF0C37BD4697
:1023F8005DF8047B704700BF0038024080B483B0AA
:1024080000AF78600B46FB70FB78002B06D00A49BA
:10241800094B5A6C7B6813434B6406E00649064B2C
:102428005A6C7B68DB4313404B6400BF0C37BD46D6
:102438005DF8047B704700BF0038024080B483B069
:1024480000AF78600B46FB70FB78002B06D00A497A
:10245800094B1A697B6813430B6106E00649064B72
:102468001A697B68DB4313400B6100BF0C37BD461C
:102478005DF8047B704700BF0038024080B483B029
:1024880000AF78600B46FB70FB78002B06D00A493A
:10249800094B5A697B6813434B6106E00649064BB2
:1024A8005A697B68DB4313404B6100BF0C37BD465C
:1024B8005DF8047B704700BF0038024080B483B0E9
:1024C80000AF78600B46FB70FB78002B06D00A49FA
:1024D800094B9A697B6813438B6106E00649064BF2
:1024E8009A697B68DB4313408B6100BF0C37BD469C
:1024F8005DF8047B704700BF0038024080B483B0A9
:1025080000AF78600B46FB70FB78002B06D00A49B9
:10251800094B1A6A7B6813430B6206E00649064BAF
:102528001A6A7B68DB4313400B6200BF0C37BD4659
:102538005DF8047B704700BF0038024080B483B068
:1025480000AF78600B46FB70FB78002B06D00A4979
:10255800094B5A6A7B6813434B6206E00649064BEF
:102568005A6A7B68DB4313404B6200BF0C37BD4699
:102578005DF8047B704700BF0038024080B483B028
:1025880000AF78600B46FB70FB78002B06D00A4939
:10259800094B1A6D7B6813430B6506E00649064B29
:1025A8001A6D7B68DB4313400B6500BF0C37BD46D3
:1025B8005DF8047B704700BF0038024080B483B0E8
:1025C80000AF78600B46FB70FB78002B06D00A49F9
:1025D800094B5A6D7B6813434B6506E00649064B69
:1025E8005A6D7B68DB4313404B6500BF0C37BD4613
:1025F8005DF8047B704700BF0038024080B483B0A8
:1026080000AF78600B46FB70FB78002B06D00A49B8
:10261800094B9A6D7B6813438B6506E00649064BA8
:102628009A6D7B68DB4313408B6500BF0C37BD4652
:102638005DF8047B704700BF0038024080B483B067
:1026480000AF78600B46FB70FB78002B06D00A4978
:10265800094B1A6E7B6813430B6606E00649064B66
:102668001A6E7B68DB4313400B6600BF0C37BD4610
:102678005DF8047B704700BF0038024080B483B027
:1026880000AF78600B46FB70FB78002B06D00A4938
:10269800094B5A6E7B6813434B6606E00649064BA6
:1026A8005A6E7B68DB4313404B6600BF0C37BD4650
:1026B8005DF8047B704700BF0038024080B483B0E7
:1026C80000AF0346FB71FB79012B06D1094A094B80
:1026D8001B6F43F00803136705E0064A054B1B6FA1
:1026E80023F00803136700BF0C37BD465DF8047B71
:1026F800704700BF0038024080B483B000AF034683
:102708000A46FB711346BB71BB79002B08D00C49F4
:102718000B4B1B78DAB2FB791343DBB20B7009E081
:102728000749074B1B78DAB2FB79DB43DBB213406E
:10273800DBB20B7000BF0C37BD465DF8047B7047F9
:102748000D38024080B487B000AF0346FB71002308
:10275800FB6000237B610023FB74FB795B09DBB220
:10276800FB60FB68012B03D1124B1B687B6109E0FE
:10277800FB68022B03D10F4B1B6F7B6102E00D4BF3
:102788005B6F7B61FB7903F01F03FB607A69FB6871
:1027980022FA03F303F00103002B02D00123FB7498
:1027A80001E00023FB74FB7C18461C37BD465DF82E
:1027B800047B70470038024080B400AF054A054BDF
:1027C8005B6F43F08073536700BFBD465DF8047BC1
:1027D800704700BF0038024080B485B000AF0346A0
:1027E800FB710023FB73094BDA68FB791340002B5C
:1027F80002D00123FB7301E00023FB73FB7B184627
:102808001437BD465DF8047B704700BF00380240AE
:1028180080B483B000AF0346FB71044AFB791370A0
:1028280000BF0C37BD465DF8047B70470E38024088
:1028380080B582B000AF78607B68174A93420AD1AE
:1028480001214FF40010FFF759FE00214FF400104A
:10285800FFF754FE1CE07B68104A93420AD101211D
:102868004FF48000FFF74AFE00214FF48000FFF785
:1028780045FE0DE07B680A4A934209D101214FF4D5
:102888000000FFF73BFE00214FF40000FFF736FE83
:1028980000BF0837BD4680BD0054004000580040C6
:1028A800005C004080B58AB000AF786039600023D2
:1028B800FB8400237B840423BB84574BFB617B6828
:1028C8009B88FB84FB8C23F03F03FB8407F10C03FC
:1028D8001846FFF761FB7B69FB61FB694F4AA2FB66
:1028E80003239B0C7B84FA8C7B8C1343FB847B68CF
:1028F800FA8C9A807B681B889BB223F001039AB2FA
:102908007B681A800023FB843B681B68444A934217
:1029180015D83B681B685B00FA69B2FBF3F3BB840C
:10292800BB8C032B01D80423BB84FA8CBB8C1343C8
:10293800FB847B8C01339AB27B681A8440E03B6845
:10294800DB884BF6FF72934209D13B681A6813463D
:102958005B001344FA69B2FBF3F3BB840EE03B68F7
:102968001A6813469B0013449A001344FA69B2FB91
:10297800F3F3BB84BB8C43F48043BB84BB8CC3F3AD
:102988000B03002B03D1BB8C43F00103BB84BA8C2F
:10299800FB8C13439BB26FEA43436FEA5343FB84B8
:1029A8007B8C4FF4967202FB03F31E4A82FB0312E0
:1029B8009211DB17D31A9BB201339AB27B681A843F
:1029C8007B68FA8C9A837B681B889BB243F001036F
:1029D8009AB27B681A807B681B88FB84FB8C23F483
:1029E800816323F00203FB843B689A883B685B8918
:1029F80013439AB2FB8C1343FB847B68FA8C1A80CE
:102A08003B689A893B681B8913439AB27B681A8191
:102A180000BF2837BD4680BD00127A0083DE1B4305
:102A2800A0860100D34D621080B483B000AF7860F7
:102A38007B6841F288321A607B6800229A807B6842
:102A48004BF6FF72DA807B6800221A817B680022CD
:102A58005A817B684FF480429A8100BF0C37BD468B
:102A68005DF8047B704700BF80B483B000AF786026
:102A78000B46FB70FB78002B08D07B681B889BB249
:102A880043F001039AB27B681A8007E07B681B88D1
:102A98009BB223F001039AB27B681A8000BF0C37FF
:102AA800BD465DF8047B704780B483B000AF7860A2
:102AB8000B46FB70FB78002B08D07B689B8C9BB285
:102AC80023F010039AB27B689A8407E07B689B8C9A
:102AD8009BB243F010039AB27B689A8400BF0C370C
:102AE800BD465DF8047B704780B485B000AF786060
:102AF8000B467B800023FB817B689B8CFB81FB89D9
:102B080023F00F03FB817B8803F00F039AB2FB8944
:102B180013439BB2FB817B68FA899A8400BF143700
:102B2800BD465DF8047B704780B483B000AF786021
:102B38000B46FB70FB78002B08D07B681B889BB288
:102B480043F480739AB27B681A8007E07B681B881D
:102B58009BB223F480739AB27B681A8000BF0C374B
:102B6800BD465DF8047B704780B483B000AF7860E1
:102B78000B46FB70FB78002B08D07B681B889BB248
:102B880043F400739AB27B681A8007E07B681B885D
:102B98009BB223F400739AB27B681A8000BF0C378B
:102BA800BD465DF8047B704780B483B000AF7860A1
:102BB8000B46FB701346BB70BB78002B04D0FB7828
:102BC80043F00103FB7003E0FB7823F00103FB7083
:102BD800FB789AB27B681A8200BF0C37BD465DF855
:102BE800047B704780B483B000AF78600B46FB70FD
:102BF800FB78002B08D07B681B889BB243F480636A
:102C08009AB27B681A8007E07B681B889BB223F422
:102C180080639AB27B681A8000BF0C37BD465DF8A6
:102C2800047B704780B485B000AF78600B46FB70BA
:102C38000023FB817B689B89FB81FB8923F0FE03D2
:102C4800FB81FB789BB203F0FE039AB2FB89134326
:102C58009BB2FB817B68FA899A8100BF1437BD4615
:102C68005DF8047B704700BF80B483B000AF786024
:102C78000B46FB70FB78002B08D07B689B899BB2C6
:102C880043F001039AB27B689A8107E07B689B89CD
:102C98009BB223F001039AB27B689A8100BF0C377C
:102CA800BD465DF8047B704780B483B000AF7860A0
:102CB8000B46FB70FB78002B08D07B681B889BB207
:102CC80043F040039AB27B681A8007E07B681B8850
:102CD8009BB223F040039AB27B681A8000BF0C377E
:102CE800BD465DF8047B704780B483B000AF786060
:102CF8000B46FB70FB78002B0AD07B681B889BB2C5
:102D08006FEA43436FEA53439AB27B681A8007E03D
:102D18007B681B889BB2C3F30E039AB27B681A8048
:102D280000BF0C37BD465DF8047B704780B483B0A4
:102D380000AF78600B46FB70FB78002B08D17B68EE
:102D48001B889BB243F080039AB27B681A8007E025
:102D58007B681B889BB223F080039AB27B681A8039
:102D680000BF0C37BD465DF8047B704780B483B064
:102D780000AF78600B467B807B88B3F5804F08D026
:102D88007B689B8B9BB223F480439AB27B689A83BF
:102D980007E07B689B8B9BB243F480439AB27B68C5
:102DA8009A8300BF0C37BD465DF8047B704700BFAF
:102DB80080B483B000AF78600B467B807B88B3F526
:102DC800006F08D17B681B889BB243F400639AB2FA
:102DD8007B681A8007E07B681B889BB223F400633A
:102DE8009AB27B681A8000BF0C37BD465DF8047B39
:102DF800704700BF80B483B000AF78600B467B801B
:102E08007B88B3F5005F08D17B681B889BB243F4CD
:102E180000539AB27B681A8007E07B681B889BB2D4
:102E280023F400539AB27B681A8000BF0C37BD4662
:102E38005DF8047B704700BF80B483B000AF786052
:102E48000B46FB70FB78002B08D07B681B889BB275
:102E580043F010039AB27B681A8007E07B681B88EE
:102E68009BB223F010039AB27B681A8000BF0C371C
:102E7800BD465DF8047B704780B483B000AF7860CE
:102E88000B46FB70FB789AB27B681A8200BF0C373E
:102E9800BD465DF8047B704780B483B000AF7860AE
:102EA8007B681B8A9BB2DBB218460C37BD465DF8BF
:102EB800047B704780B483B000AF78600B46FB702A
:102EC800FB78002B08D07B681B889BB243F48053A7
:102ED8009AB27B681A8007E07B681B889BB223F450
:102EE80080539AB27B681A8000BF0C37BD465DF8E4
:102EF800047B704780B483B000AF78600B467B805A
:102F08007B88B3F5006F08D17B681B889BB243F4BC
:102F180000639AB27B681A8007E07B681B889BB2C3
:102F280023F400639AB27B681A8000BF0C37BD4651
:102F38005DF8047B704700BF80B483B000AF786051
:102F48000B46FB70FB78002B08D07B681B889BB274
:102F580043F020039AB27B681A8007E07B681B88DD
:102F68009BB223F020039AB27B681A8000BF0C370B
:102F7800BD465DF8047B704780B483B000AF7860CD
:102F88007B681B8B9BB21B0A9BB2DBB218460C37C3
:102F9800BD465DF8047B704780B483B000AF7860AD
:102FA8000B46FB70FB78002B08D07B689B889BB294
:102FB80043F400639AB27B689A8007E07B689B8839
:102FC8009BB223F400639AB27B689A8000BF0C37E7
:102FD800BD465DF8047B704780B483B000AF78606D
:102FE8000B46FB70FB78002B08D07B689B889BB254
:102FF80043F480539AB27B689A8007E07B689B8889
:103008009BB223F480539AB27B689A8000BF0C3736
:10301800BD465DF8047B704780B485B000AF78602A
:103028000B46FB700023FB607B68FB60FA78FB684B
:103038001344FB60FB681B889BB218461437BD46D7
:103048005DF8047B704700BF80B483B000AF786040
:103058000B467B8013467B707B78002B08D07B68FF
:103068009B889AB27B8813439AB27B689A8009E05E
:103078007B689B889AB27B88DB439BB213409AB2E9
:103088007B689A8000BF0C37BD465DF8047B7047AB
:1030980080B487B000AF7860396000233B610023BB
:1030A800FB600023BB600023FB757B689B8A9BB297
:1030B800FB607B681B8B9BB2BB60BB681B04BB605F
:1030C800FA68BB68134323F07F433B613A693B6866
:1030D8001A403B689A4202D10123FB7501E00023A4
:1030E800FB75FB7D18461C37BD465DF8047B7047B1
:1030F80080B487B000AF786000237B6100233B6118
:103108000023FB607B689B8A9BB23B617B681B8BBF
:103118009BB2FB60FB681B04FB603A69FB681343C6
:1031280023F07F437B617B6918461C37BD465DF8F9
:10313800047B704780B487B000AF786039600023A3
:10314800FB7500233B610023FB607B68FB603B68E9
:103158001B0F3B613B6823F07F433B603B69002BBF
:1031680003D0FB681433FB6005E03B681B0C3B6035
:10317800FB681833FB60FB681A683B681340002B38
:1031880002D00123FB7501E00023FB75FB7D184687
:103198001C37BD465DF8047B704700BF80B485B01E
:1031A80000AF786039600023FB603B6823F07F4301
:1031B800FB60FB689BB2DB439AB27B689A8200BFD4
:1031C8001437BD465DF8047B704700BF80B485B0F6
:1031D80000AF786039600023FB730023BB603B6855
:1031E80003F0E0631B0C7A68928892B21340BB60CC
:1031F8003B6823F07F433B607B689B8A9BB21A46FF
:103208003B681340002B05D0BB68002B02D001237C
:10321800FB7301E00023FB73FB7B18461437BD46A4
:103228005DF8047B704700BF80B485B000AF78605C
:1032380039600023FB603B6823F07F43FB60FB6839
:103248009BB2DB439AB27B689A8200BF1437BD46B3
:103258005DF8047B704700BF80B582B000AF78602E
:103268007B683B4A934208D101211020FFF766F999
:1032780000211020FFF762F965E07B68354A934228
:103288000AD101214FF40030FFF738F900214FF43B
:103298000030FFF733F956E07B682F4A93420AD192
:1032A80001214FF48020FFF729F900214FF48020F5
:1032B800FFF724F947E07B68284A93420AD10121A5
:1032C8004FF40020FFF71AF900214FF40020FFF710
:1032D80015F938E07B68224A93420AD101214FF45C
:1032E8008010FFF70BF900214FF48010FFF706F963
:1032F80029E07B681B4A934208D101212020FFF76F
:103308001DF900212020FFF719F91CE07B68164AF7
:1033180093420AD101214FF08040FFF7EFF80021D6
:103328004FF08040FFF7EAF80DE07B680F4A9342C0
:1033380009D101214FF00040FFF7E0F800214FF0DC
:103348000040FFF7DBF800BF0837BD4680BD00BF6F
:10335800001001400044004000480040004C00407C
:10336800005000400014014000780040007C0040FC
:1033780080B58AB000AF7860396000237B62002393
:103388003B620023FB610023BB617B681B8A9BB205
:103398007B627B6A23F440537B623B68DB881A4676
:1033A8007B6A13437B627B6A9AB27B681A827B686A
:1033B8009B899BB27B627B6A23F4B05323F00C0396
:1033C8007B623B689A883B681B8913439AB23B68C7
:1033D8005B8913439BB21A467B6A13437B627B6A01
:1033E8009AB27B689A817B689B8A9BB27B627B6A74
:1033F80023F440737B623B689B891A467B6A1343BC
:103408007B627B6A9AB27B689A8207F10803184646
:10341800FEF7C2FD7B68314A934203D07B68304A8D
:10342800934202D17B693B6201E03B693B627B6866
:103438009B899BB29BB21BB2002B0CDA3A6A1346EB
:103448009B0013449A001A443B681B685B00B2FB5C
:10345800F3F3FB610BE03A6A13469B0013449A00AE
:103468001A443B681B689B00B2FBF3F3FB61FB69E2
:103478001C4AA2FB03235B091B017B627B6A1B09B5
:10348800642202FB03F3FA69D31ABB617B689B8948
:103498009BB29BB21BB2002B0CDABB69DB00323348
:1034A800104AA2FB03235B0903F007037A6A13435C
:1034B8007B620BE0BB691B0132330A4AA2FB032380
:1034C8005B0903F00F037A6A13437B627B6A9AB243
:1034D8007B681A8100BF2837BD4680BD00100140B7
:1034E800001401401F85EB5180B483B000AF7860B1
:1034F8007B684FF416521A607B6800229A807B68BA
:103508000022DA807B6800221A817B680C225A81AB
:103518007B6800229A8100BF0C37BD465DF8047BAA
:10352800704700BF80B485B000AF78603960002371
:10353800FB607B681B8A9BB2FB60FB6823F47063AB
:10354800FB603B681A883B685B8813439AB23B6808
:103558009B8813439AB23B68DB8813439BB21A4695
:10356800FB681343FB60FB689AB27B681A8200BF52
:103578001437BD465DF8047B704700BF80B483B044
:1035880000AF78607B6800221A807B6800225A802E
:103598007B6800229A807B680022DA8000BF0C37A3
:1035A800BD465DF8047B704780B483B000AF786097
:1035B8000B46FB70FB78002B08D07B689B899BB27D
:1035C80043F400539AB27B689A8107E07B689B8931
:1035D8009BB223F400539AB27B689A8100BF0C37E0
:1035E800BD465DF8047B704780B483B000AF786057
:1035F8000B46FB707B681B8B9BB223F0FF039AB2D0
:103608007B681A837B681B8B9AB2FB789BB2134347
:103618009AB27B681A8300BF0C37BD465DF8047BFD
:10362800704700BF80B483B000AF78600B46FB7072
:10363800FB78002B0AD07B689B899BB26FEA4343D7
:103648006FEA53439AB27B689A8107E07B689B894B
:103658009BB2C3F30E039AB27B689A8100BF0C3702
:10366800BD465DF8047B704780B483B000AF7860D6
:103678000B46FB70FB78002B08D07B689B8A9BB2BB
:1036880043F400639AB27B689A8207E07B689B8A5E
:103698009BB223F400639AB27B689A8200BF0C370E
:1036A800BD465DF8047B704780B483B000AF786096
:1036B8000B467B807B88C3F308039AB27B689A80A9
:1036C80000BF0C37BD465DF8047B704780B483B0FB
:1036D80000AF78607B689B889BB2C3F308039BB2FA
:1036E80018460C37BD465DF8047B704780B483B03C
:1036F80000AF78600B46FB707B681B8A9BB223F097
:103708000F039AB27B681A827B681B8A9AB2FB788D
:103718009BB213439AB27B681A8200BF0C37BD462E
:103728005DF8047B704700BF80B483B000AF786059
:103738000B46FB70FB78002B08D07B689B899BB2FB
:1037480043F002039AB27B689A8107E07B689B8901
:103758009BB223F002039AB27B689A8100BF0C37B0
:10376800BD465DF8047B704780B483B000AF7860D5
:103778000B467B807B689B899BB223F400639AB2DB
:103788007B689A817B689B899AB27B8813439AB23B
:103798007B689A8100BF0C37BD465DF8047B704793
:1037A80080B483B000AF78600B467B807B681B8A4F
:1037B8009BB223F020039AB27B681A827B681B8A2B
:1037C8009AB27B8813439AB27B681A8200BF0C377F
:1037D800BD465DF8047B704780B483B000AF786065
:1037E8000B46FB70FB78002B08D07B681B8A9BB2CA
:1037F80043F480439AB27B681A8207E07B681B8A8D
:103808009BB223F480439AB27B681A8200BF0C37BC
:10381800BD465DF8047B704780B483B000AF786024
:103828007B689B899BB243F001039AB27B689A81BB
:1038380000BF0C37BD465DF8047B704780B483B089
:1038480000AF78600B46FB70FB78002B08D07B68D4
:103858009B8A9BB243F008039AB27B689A8207E07E
:103868007B689B8A9BB223F008039AB27B689A8292
:1038780000BF0C37BD465DF8047B704780B483B049
:1038880000AF78600B46FB707B681B8B9BB2DBB28A
:103898009AB27B681A837B681B8B9AB2FB789BB2BF
:1038A8001B029BB213439AB27B681A8300BF0C3782
:1038B800BD465DF8047B704780B483B000AF786084
:1038C8000B46FB70FB78002B08D07B689B8A9BB269
:1038D80043F020039AB27B689A8207E07B689B8A50
:1038E8009BB223F020039AB27B689A8200BF0C3700
:1038F800BD465DF8047B704780B483B000AF786044
:103908000B46FB70FB78002B08D07B689B8A9BB228
:1039180043F010039AB27B689A8207E07B689B8A1F
:103928009BB223F010039AB27B689A8200BF0C37CF
:10393800BD465DF8047B704780B483B000AF786003
:103948000B467B807B689B8A9BB223F004039AB268
:103958007B689A827B689B8A9AB27B8813439AB267
:103968007B689A8200BF0C37BD465DF8047B7047C0
:1039780080B483B000AF78600B46FB70FB78002BF7
:1039880008D07B689B8A9BB243F002039AB27B689B
:103998009A8207E07B689B8A9BB223F002039AB263
:1039A8007B689A8200BF0C37BD465DF8047B704780
:1039B80080B483B000AF78600B467B8013467B7081
:1039C8007B78002B08D07B689B8A9AB27B8813434C
:1039D8009AB27B689A8209E07B689B8A9AB27B8854
:1039E800DB439BB213409AB27B689A8200BF0C37C4
:1039F800BD465DF8047B704780B487B000AF78603F
:103A08000B467B8013467B7000233B610023FB60E1
:103A18000023BB6000237B617B687B617B88DBB212
:103A28005B09DBB23B617B8803F01F03FB6001226B
:103A3800FB6802FA03F3BB603B69012B03D17B6986
:103A48000C337B6109E03B69022B03D17B6910339E
:103A58007B6102E07B6914337B617B78002B06D0A5
:103A68007B697A691168BA680A431A6006E07B695B
:103A78007A691168BA68D2430A401A6000BF1C37D5
:103A8800BD465DF8047B704780B485B000AF7860B0
:103A98000B467B800023FB737B681B889AB27B886C
:103AA80013409BB2002B02D00123FB7301E00023DB
:103AB800FB73FB7B18461437BD465DF8047B7047E3
:103AC80080B483B000AF78600B467B807B88DB4393
:103AD8009AB27B681A8000BF0C37BD465DF8047B3C
:103AE800704700BF80B487B000AF78600B467B801A
:103AF8000023FB6000237B610023BB600023FB7471
:103B08007B88DBB25B09DBB2BB607B8803F01F03F9
:103B18007B6101227B6902FA03F37B61BB68012B9D
:103B280007D17B689B899BB21A467B6913407B61EE
:103B380011E0BB68022B07D17B681B8A9BB21A462F
:103B48007B6913407B6106E07B689B8A9BB21A46BF
:103B58007B6913407B617B881B0A9BB2FB60012257
:103B6800FB6802FA03F3FB607B681B889BB21A466A
:103B7800FB681340FB607B69002B05D0FB68002BBA
:103B880002D00123FB7401E00023FB74FB7C184680
:103B98001C37BD465DF8047B704700BF80B485B014
:103BA80000AF78600B467B800023FB810023BB813C
:103BB8007B881B0AFB81FB89012202FA03F3BB8184
:103BC800BB89DB439AB27B681A8000BF1437BD46B5
:103BD8005DF8047B704700BF80B483B000AF7860A5
:103BE8007B681B6823F001027B681A607B680022EF
:103BF8001A607B6800225A607B6800229A607B68A2
:103C08000022DA607B6800221A617B6821225A61EF
:103C18007B68464A934203D1454B3D229A607EE039
:103C28007B68444A934204D1414B4FF474629A60D2
:103C380075E07B68404A934204D13D4B4FF47412BF
:103C48009A606CE07B683D4A934204D1384B4FF050
:103C580074629A6063E07B68394A934203D1344BBB
:103C6800384ADA605BE07B68374A934203D1304BCD
:103C7800364ADA6053E07B68354A934203D12C4BCD
:103C8800344ADA604BE07B68334A934204D1284BCC
:103C98004FF03D52DA6042E07B68304A934203D1EC
:103CA8002F4B3D229A603AE07B682E4A934204D11A
:103CB8002B4B4FF474629A6031E07B682A4A934236
:103CC80004D1274B4FF474129A6028E07B68274A86
:103CD800934204D1224B4FF074629A601FE07B68D4
:103CE800234A934203D11E4B164ADA6017E07B68D9
:103CF800204A934203D11A4B144ADA600FE07B68DA
:103D08001D4A934203D1164B124ADA6007E07B68DA
:103D18001A4A934203D1124B4FF03D52DA6000BF6A
:103D28000C37BD465DF8047B704700BF1060024049
:103D38000060024028600240406002405860024033
:103D4800706002403D00002088600240400F002063
:103D5800A060024000003D20B860024010640240AC
:103D680000640240286402404064024058640240F3
:103D78007064024088640240A0640240B864024053
:103D880080B485B000AF786039600023FB607B6841
:103D98001B68FB60FA68254B1340FB603B681A6898
:103DA8003B68DB681A433B685B691A433B689B695D
:103DB8001A433B68DB691A433B681B6A1A433B6832
:103DC8005B6A1A433B689B6A1A433B685B6B1A43FE
:103DD8003B689B6B1343FA681343FB607B68FA6884
:103DE8001A607B685B69FB60FB6823F00703FB6074
:103DF8003B68DA6A3B681B6B1343FA681343FB6042
:103E08007B68FA685A613B681A697B685A603B6844
:103E18005A687B689A603B689A687B68DA6000BF7A
:103E28001437BD465DF8047B704700BF3F801CF027
:103E380080B483B000AF78607B6800221A607B682A
:103E480000225A607B6800229A607B680022DA6050
:103E58007B6800221A617B6800225A617B68002215
:103E68009A617B680022DA617B6800221A627B68AB
:103E780000225A627B6800229A627B680022DA621A
:103E88007B6800221A637B6800225A637B680022E1
:103E98009A6300BF0C37BD465DF8047B704700BFCE
:103EA80080B483B000AF78600B46FB70FB78002BC2
:103EB80006D07B681B6843F001027B681A6005E046
:103EC8007B681B6823F001027B681A6000BF0C370F
:103ED800BD465DF8047B704780B483B000AF78605E
:103EE80039603B68002B06D07B681B6843F40042AE
:103EF8007B681A6005E07B681B6823F400427B68D6
:103F08001A6000BF0C37BD465DF8047B704700BFE0
:103F180080B483B000AF786039603B68002B06D06E
:103F28007B681B6843F020027B681A6005E07B68A9
:103F38001B6823F020027B681A6000BF0C37BD465F
:103F48005DF8047B704700BF80B483B000AF786031
:103F58000B467B807A887B685A6000BF0C37BD4669
:103F68005DF8047B704700BF80B483B000AF786011
:103F78007B685B689BB218460C37BD465DF8047BCE
:103F8800704700BF80B485B000AFF860B9607A6050
:103F98007B68002B06D0FB681B6843F40022FB6893
:103FA8001A6005E0FB681B6823F40022FB681A60AE
:103FB800FB68BA681A6100BF1437BD465DF8047B18
:103FC800704700BF80B483B000AF78600B46FB70C9
:103FD800FB78002B06D07B681B6843F480227B6843
:103FE8001A6005E07B681B6823F480227B681A60EE
:103FF80000BF0C37BD465DF8047B704780B485B0C0
:1040080000AFF860B9607A607B68002B03D0FB686A
:10401800BA681A6102E0FB68BA68DA6000BF143750
:10402800BD465DF8047B704780B485B000AF78600A
:104038000023FB607B681B6803F40023002B02D07D
:104048000123FB6001E00023FB60FB68184614377E
:10405800BD465DF8047B704780B485B000AF7860DA
:104068000023FB737B681B6803F00103002B02D05D
:104078000123FB7301E00023FB73FB7B1846143715
:10408800BD465DF8047B704780B485B000AF7860AA
:104098000023FB607B685B6903F03803FB60FB6807
:1040A80018461437BD465DF8047B704780B487B066
:1040B80000AF786039600023FB750023FB607B68E4
:1040C800154A934202D8154B3B6101E0144B3B6102
:1040D8003B6803F00053002B03D03B695B68FB602F
:1040E80002E03B691B68FB60FB6823F0F02323F0C8
:1040F8008213FB60FA683B681340002B02D001234F
:10410800FB7501E00023FB75FB7D18461C37BD4697
:104118005DF8047B704700BF0F64024000600240F6
:104128000064024080B485B000AF786039607B6875
:10413800104A934202D8104BFB6001E00F4BFB6022
:104148003B6803F00053002B07D03B6823F0F023B3
:1041580023F08213FA68D36006E03B6823F0F0236B
:1041680023F08213FA68936000BF1437BD465DF8E8
:10417800047B70470F640240006002400064024004
:1041880080B485B000AFF860B9601346FB71BB68B6
:1041980003F08003002B0FD0FB79002B06D0FB68BF
:1041A8005B6943F08002FB685A6105E0FB685B6964
:1041B80023F08002FB685A61BB68802B14D0FB791E
:1041C800002B08D0FB681A68BB6803F01E031A436B
:1041D800FB681A6008E0FB681A68BB6803F01E03F6
:1041E800DB431A40FB681A6000BF1437BD465DF810
:1041F800047B704780B487B000AF786039600023D3
:10420800FB750023FB600023BB607B68224A934256
:1042180002D8224B3B6101E0214B3B613B6823F014
:10422800F02323F0C313002B0AD03B68DB0A03F00A
:104238001E03FB607B681A68FB681340BB6004E0E0
:104248007B685B6903F08003BB603B6803F0005345
:10425800002B03D03B695B68FB6002E03B691B688D
:10426800FB60FB6823F0F02323F08213FB60FA68FD
:104278003B681340002B05D0BB68002B02D00123FC
:10428800FB7501E00023FB75FB7D18461C37BD4616
:104298005DF8047B704700BF0F6402400060024075
:1042A8000064024080B485B000AF786039607B68F4
:1042B800104A934202D8104BFB6001E00F4BFB60A1
:1042C8003B6803F00053002B07D03B6823F0F02332
:1042D80023F08213FA68D36006E03B6823F0F023EA
:1042E80023F08213FA68936000BF1437BD465DF867
:1042F800047B70470F640240006002400064024083
:1043080080B582B000AF78607B684B4A934208D191
:1043180001210120FEF792F800210120FEF78EF816
:1043280086E07B68454A934208D101210220FEF7C6
:1043380085F800210220FEF781F879E07B68404A81
:10434800934208D101210420FEF778F800210420C7
:10435800FEF774F86CE07B683A4A934208D1012171
:104368000820FEF76BF800210820FEF767F85FE0E9
:104378007B68354A934208D101211020FEF75EF888
:1043880000211020FEF75AF852E07B682F4A93422A
:1043980008D101212020FEF751F800212020FEF746
:1043A8004DF845E07B682A4A934208D10121402014
:1043B800FEF744F800214020FEF740F838E07B681B
:1043C800244A934208D101218020FEF737F80021C2
:1043D8008020FEF733F82BE07B681F4A93420AD10E
:1043E80001214FF48070FEF729F800214FF4807006
:1043F800FEF724F81CE07B68184A93420AD1012191
:104408004FF40070FEF71AF800214FF40070FEF721
:1044180015F80DE07B68124A934209D101214FF447
:104428008060FEF70BF800214FF48060FEF706F875
:1044380000BF0837BD4680BD0000024000040240AE
:1044480000080240000C0240001002400014024024
:1044580000180240001C02400020024000240240D4
:104468000028024080B487B000AF7860396000232C
:104478007B6100233B610023FB6000237B6176E0C6
:1044880001227B6902FA03F33B613B681A683B69C6
:104498001340FB60FA683B699A4265D17B681A68E9
:1044A8007B695B00032101FA03F3DB431A407B6855
:1044B8001A607B681A683B681B7919467B695B0040
:1044C80001FA03F31A437B681A603B681B79012BD6
:1044D80003D03B681B79022B2ED17B689A687B69D5
:1044E8005B00032101FA03F3DB431A407B689A60FF
:1044F8007B689A683B685B7919467B695B0001FABF
:1045080003F31A437B689A607B685A687B699BB29D
:10451800012101FA03F3DB431A407B685A607B6888
:104528005A683B689B7919467B699BB201FA03F389
:104538009BB21A437B685A607B68DA687B699BB2D6
:104548005B00032101FA03F3DB431A407B68DA605E
:104558007B68DA683B68DB7919467B695B0001FA9E
:1045680003F31A437B68DA607B6901337B617B69FB
:104578000F2B85D900BF1C37BD465DF8047B7047FB
:1045880080B483B000AF78607B684FF6FF721A6022
:104598007B6800221A717B6800225A717B680022AE
:1045A8009A717B680022DA7100BF0C37BD465DF84E
:1045B800047B704780B485B000AF78600B467B8081
:1045C8004FF48033FB607A88FB681343FB60FA681A
:1045D8007B68DA617A887B68DA61FA687B68DA6115
:1045E8007B68DB69FB607B68DB69FB6000BF1437B5
:1045F800BD465DF8047B704780B485B000AF786035
:104608000B467B800023FB737B681A697B88134009
:10461800002B02D00123FB7301E00023FB73FB7B1B
:1046280018461437BD465DF8047B704780B483B0E4
:1046380000AF78607B681B699BB218460C37BD4693
:104648005DF8047B704700BF80B485B000AF786028
:104658000B467B800023FB737B685A697B88134079
:10466800002B02D00123FB7301E00023FB73FB7BCB
:1046780018461437BD465DF8047B704780B483B094
:1046880000AF78607B685B699BB218460C37BD4603
:104698005DF8047B704700BF80B483B000AF7860DA
:1046A8000B467B807B687A881A8300BF0C37BD462F
:1046B8005DF8047B704700BF80B483B000AF7860BA
:1046C8000B467B807B687A885A8300BF0C37BD46CF
:1046D8005DF8047B704700BF80B483B000AF78609A
:1046E8000B467B8013467B707B78002B03D07B685E
:1046F8007A881A8302E07B687A885A8300BF0C376D
:10470800BD465DF8047B704780B483B000AF786025
:104718000B467B807A887B685A6100BF0C37BD46A0
:104728005DF8047B704700BF80B483B000AF786049
:104738000B467B807B685A697B885A407B685A6144
:1047480000BF0C37BD465DF8047B704780B485B068
:1047580000AF78600B467B8013467B700023FB60BC
:104768000023BB607A787B8803F007039B0002FA7A
:1047780003F3FB607B88DB089BB218467B88DB0869
:104788009BB21A467B68083253F822207B8803F0D4
:1047980007039B000F2101FA03F3DB4302EA03013D
:1047A8007B6800F1080243F822107B88DB089BB283
:1047B8001A467B68083253F82220FB681343BB6013
:1047C8007B88DB089BB21A467B680832B96843F8D5
:1047D800221000BF1437BD465DF8047B704700BF48
:1047E80080B58CB002AFF860B9603B601346FB80BF
:1047F800FB68002B09D14FF0030383F31188BFF343
:104808006F8FBFF34F8F3B61FEE73B6B042B09D9DA
:104818004FF0030383F31188BFF36F8FBFF34F8FFC
:104828007B61FEE7FB88B96B184601F00FFA386226
:104838003B6A002B78D03B6A1A6BFB8803F18043F4
:10484800013B9B001344FB61FB6923F00703FB61F9
:10485800FB6903F00703002B09D04FF0030383F330
:104868001188BFF36F8FBFF34F8FBB61FEE7FB88E3
:104878000093FB6B3A6BB968386A01F0DDF83A6867
:10488800F968F86901F02CFF02463B6A1A607B6BF5
:10489800002B02D07B6B3A6A1A6002F037F8314B72
:1048A8001B6801332F4A13602F4B1B68002B09D15B
:1048B8002D4A3B6A13602B4B1B68012B0FD101F06B
:1048C80013F90CE0294B1B68002B08D1264B1B68F9
:1048D800DA6A3B6B9A4202D8234A3B6A1360244B3C
:1048E8001B680133224A1360214B1A683B6A1A6419
:1048F8003B6ADB6A01229A401E4B1B6813431D4A20
:1049080013603B6ADA6A13469B0013449B001A4AF9
:104918001A443B6A04331946104602F02FF9012362
:104928007B6202F021F802E04FF0FF337B627B6A82
:10493800012B11D10D4B1B68002B0DD00A4B1B68A6
:10494800DA6A3B6B9A4207D20C4B4FF080521A60DE
:10495800BFF34F8FBFF36F8F7B6A18462837BD466A
:1049680080BD00BF480900207008002054090020BD
:1049780064090020500900207408002004ED00E0BC
:1049880080B584B000AF786001F0C0FF7B68002B71
:1049980002D1344B1B6800E07B68FB60FB68043382
:1049A800184602F049F90346002B15D1FB68DA6A6C
:1049B8002D4913469B0013449B000B441B68002B96
:1049C8000AD1FB68DB6A012202FA03F3DA43274BB8
:1049D8001B681340254A1360FB689B6A002B04D0B0
:1049E800FB681833184602F027F9FB6804331946A8
:1049F8001F4802F0C3F81F4B1B6801331D4A1360A0
:104A08001D4B1B6801331C4A136001F0ADFF1B4BA3
:104A18001B68002B21D0134B1B68FA689A4216D1E9
:104A2800174B1B68002B09D04FF0030383F3118841
:104A3800BFF36F8FBFF34F8FBB60FEE7114B4FF093
:104A480080521A60BFF34F8FBFF36F8F05E001F0FC
:104A58005DFF01F0E9F901F087FF00BF1037BD469F
:104A680080BD00BF70080020740800205009002095
:104A78001C09002030090020640900205409002086
:104A88006809002004ED00E080B58AB000AF7860C6
:104A9800396000237B627B68002B09D14FF0030348
:104AA80083F31188BFF36F8FBFF34F8FFB60FEE76F
:104AB8003B68002B09D14FF0030383F31188BFF340
:104AC8006F8FBFF34F8F3B61FEE7324B1B68002BA4
:104AD80009D04FF0030383F31188BFF36F8FBFF33F
:104AE8004F8F7B61FEE700F097FA2B4B1B683B6208
:104AF8007B681A683B681344FB617B681A683B6AE9
:104B08009A420BD97B681A68FB699A4211D9FA69EB
:104B18003B6A9A420DD901237B620AE07B681A68D6
:104B2800FB699A4203D8FA693B6A9A4201D9012380
:104B38007B627B68FA691A607B6A002B17D0174B77
:104B48001B680433184602F077F80346002B0BD194
:104B5800124B1B68DB6A012202FA03F3DA43104B9B
:104B68001B6813400E4A1360F86901F039F800F029
:104B780061FAB861BB69002B07D10A4B4FF080522C
:104B88001A60BFF34F8FBFF36F8F00BF2837BD4642
:104B980080BD00BF680900204C0900207008002073
:104BA8005009002004ED00E080B586B000AF7860C1
:104BB80000237B617B68002B2FD01F4B1B68002BC9
:104BC80009D04FF0030383F31188BFF36F8FBFF34E
:104BD8004F8FFB60FEE700F01FFA184B1A687B68DE
:104BE80013443B61164B1B680433184602F024F843
:104BF8000346002B0BD1124B1B68DB6A012202FA19
:104C080003F3DA430F4B1B6813400E4A13603869ED
:104C180000F0E6FF00F00EFA78617B69002B07D1FF
:104C2800094B4FF080521A60BFF34F8FBFF36F8F5D
:104C380000BF1837BD4680BD680900204C09002018
:104C4800700800205009002004ED00E080B584B011
:104C580000AF786001F05AFE7B68002B02D1374B19
:104C68001B6800E07B68FB60FB680433184601F0B2
:104C7800E3FF0346002B15D1FB68DA6A3049134677
:104C88009B0013449B000B441B68002B0AD1FB6854
:104C9800DB6A012202FA03F3DA432A4B1B6813404A
:104CA800284A1360FB689B6A002B04D0FB68183302
:104CB800184601F0C1FFFB6804331946224801F089
:104CC8005DFF01F051FE1D4B1B68FA689A4227D11F
:104CD8001E4B1B68002B16D01D4B1B68002B09D0E0
:104CE8004FF0030383F31188BFF36F8FBFF34F8F28
:104CF800BB60FEE7174B4FF080521A60BFF34F8F2F
:104D0800BFF36F8F16E0104B1A68134B1B689A425B
:104D180003D10A4B00221A600CE000F0DFFB09E027
:104D28000A4B1B68002B05D001F0F0FD01F07CF860
:104D380001F01AFE00BF1037BD4680BD7008002084
:104D4800740800205009002034090020540900206C
:104D58006809002004ED00E04809002080B487B00D
:104D680000AF786000237B617B683B617B68002B28
:104D780009D14FF0030383F31188BFF36F8FBFF39B
:104D88004F8FFB60FEE73B695B690F4A934201D195
:104D9800012300E00023002B0FD03B699B6A0B4ADC
:104DA80093420AD03B699B6A002B01D1012300E0A2
:104DB8000023002B01D001237B617B6918461C3737
:104DC800BD465DF8047B70473409002008090020BF
:104DD80080B584B000AF78607B68FB607B68002B8F
:104DE80009D14FF0030383F31188BFF36F8FBFF32B
:104DF8004F8FBB60FEE7FB68002B39D01E4B1B684A
:104E0800FA689A4234D001F081FDF868FFF7A6FFEE
:104E18000346012B2AD1FB680433184601F00CFF26
:104E2800FB68DB6A01229A40144B1B681343134A40
:104E38001360FB68DA6A13469B0013449B00104A10
:104E48001A44FB6804331946104601F097FEFB68C4
:104E5800DA6A094B1B68DB6A9A4207D3094B4FF0A1
:104E680080521A60BFF34F8FBFF36F8F01F07CFD44
:104E780000BF1037BD4680BD7008002050090020D3
:104E88007408002004ED00E080B58AB000AF7860B7
:104E980000237B627B683B627B68002B09D14FF063
:104EA800030383F31188BFF36F8FBFF34F8F3B6109
:104EB800FEE701F0F3FDEFF311824FF0030383F3F4
:104EC8001188BFF36F8FBFF34F8F7A61FB607B69E7
:104ED800BB61386AFFF742FF0346012B2FD11D4BF8
:104EE8001B68002B25D13B6ADA6A1B4B1B68DB6AFF
:104EF8009A4201D301237B623B6A0433184601F0CE
:104F08009BFE3B6ADB6A01229A40144B1B681343E1
:104F1800124A13603B6ADA6A13469B0013449B00EB
:104F28000F4A1A443B6A04331946104601F026FE1C
:104F380005E03B6A183319460A4801F01FFEBB69B1
:104F4800FB61FB6983F311887B6A18462837BD46E5
:104F580080BD00BF680900207008002050090020AB
:104F6800740800200809002080B588B004AF002329
:104F7800039300230293002301930023009300234B
:104F8800822215491548FFF72BFCF860FB68012BB6
:104F980011D14FF0030383F31188BFF36F8FBFF371
:104FA8004F8F7B600E4B01221A600E4B00221A6055
:104FB80001F006FC0CE0FB68002B09D14FF003035D
:104FC80083F31188BFF36F8FBFF34F8FBB60FEE78A
:104FD80000BF1037BD4680BDA0750008115A0008F3
:104FE800540900204C09002080B582B000AF4FF072
:104FF800030383F31188BFF36F8FBFF34F8F7B6079
:10500800044B00221A6001F067FC00BF0837BD4658
:1050180080BD00BF5409002080B400AF044B1B685A
:105028000133034A136000BFBD465DF8047B704737
:105038006809002080B584B000AF0023FB603E4BB8
:105048001B68002B09D14FF0030383F31188BFF3CA
:105058006F8FBFF34F8F7B60FEE701F057FC364B35
:105068001B68013B344A1360334B1B68002B5BD130
:10507800324B1B68002B57D02EE0314BDB68DB68C6
:10508800BB60BB681833184601F0D6FDBB68043313
:10509800184601F0D1FDBB68DB6A01229A40294B12
:1050A8001B681343274A1360BB68DA6A13469B00E0
:1050B80013449B00244A1A44BB680433194610461B
:1050C80001F05CFDBB68DA6A204B1B68DB6A9A4218
:1050D80002D31F4B01221A60194B1B68002BCCD13D
:1050E8001C4B1B68002B11D00CE000F0DFF80346C6
:1050F800002B02D0164B01221A60164B1B68013B8D
:10510800144A1360134B1B68002BEED1104B1B681D
:10511800012B09D10123FB600F4B4FF080521A601D
:10512800BFF34F8FBFF36F8F01F01EFCFB6818466B
:105138001037BD4680BD00BF68090020480900201F
:105148000809002050090020740800207008002079
:105158005C0900205809002004ED00E080B483B009
:1051680000AF054B1B687B607B6818460C37BD4653
:105178005DF8047B704700BF4C09002080B582B001
:1051880000AF01F08BFC00237B60044B1B683B6085
:105198003B6818460837BD4680BD00BF4C09002053
:1051A80080B400AF034B1B681846BD465DF8047B0E
:1051B800704700BF4809002080B586B000AFF8608E
:1051C800B9607A6000237B6105233B61FFF724FF08
:1051D800304B1B68BA689A4254D33B69013B3B6128
:1051E8007B695B01FA68D0183A6913469B0013443F
:1051F8009B00294A13440122194600F05DFD02462E
:105208007B6913447B613B69002BE6D17B695B01B9
:10521800FA68D018214B1B680222194600F04CFD91
:1052280002467B6913447B617B695B01FA68D0188D
:105238001B4B1B680222194600F03EFD02467B69A3
:1052480013447B617B695B01FA68134404221549A6
:10525800184600F031FD02467B6913447B617B6987
:105268005B01FA68134403220F49184600F024FD35
:1052780002467B6913447B617B68002B02D07B6804
:1052880000221A60FFF7D6FE7B6918461837BD461C
:1052980080BD00BF480900207408002000090020D4
:1052A800040900201C0900203409002080B586B0BC
:1052B80000AF00237B61514B1B68002B40F08D80B1
:1052C8004F4B1B6801334E4A13604D4B1B683B61C3
:1052D8003B69002B1FD14B4B1B681B68002B09D067
:1052E8004FF0030383F31188BFF36F8FBFF34F8F22
:1052F8003B60FEE7434B1B68FB60434B1B68414A1E
:105308001360414AFB681360404B1B6801333F4AF6
:10531800136000F089FD3E4B1B683A699A424DD3F1
:10532800384B1B681B68002B01D1012300E00023C8
:10533800002B04D0364B4FF0FF321A603EE0314B61
:105348001B68DB68DB68BB60BB685B687B603A69CD
:105358007B689A4203D22E4A7B6813602EE0BB68B2
:105368000433184601F068FCBB689B6A002B04D024
:10537800BB681833184601F05FFCBB68DB6A012282
:105388009A40244B1B681343224A1360BB68DA6AAD
:1053980013469B0013449B001F4A1A44BB680433FE
:1053A8001946104601F0EAFBBB68DA6A1B4B1B681A
:1053B800DB6A9A42B4D301237B61B1E7174B1B68C0
:1053C800DA6A154913469B0013449B000B441B687B
:1053D800012B07D901237B6104E0114B1B680133C2
:1053E8000F4A13600F4B1B68002B01D001237B6110
:1053F8007B6918461837BD4680BD00BF6809002084
:105408004C09002000090020040900206009002040
:105418002400002050090020740800207008002093
:10542800580900205C09002080B584B000AF78607E
:1054380039607B68002B03D1084B1B68FB6001E0D7
:105448007B68FB6001F062FAFB683A681A6501F054
:105458008BFA00BF1037BD4680BD00BF7008002022
:1054680080B584B000AF78607B68002B03D1094B0E
:105478001B68FB6001E07B68FB6001F047FAFB6892
:105488001B6DBB6001F070FABB6818461037BD464B
:1054980080BD00BF7008002080B584B000AF786080
:1054A80039607B68002B03D10B4B1B68FB6001E064
:1054B8007B68FB60FB681B6D002B05D0FB681B6DD0
:1054C80038689847B86001E00023BB60BB6818469D
:1054D8001037BD4680BD00BF7008002080B586B07B
:1054E80000AF294B1B68002B03D0284B01221A6000
:1054F80046E0264B00221A60254B1B68BB60BB6840
:10550800B3FA83F3FB71FB79C3F11F033B612149B4
:105518003A6913469B0013449B000B441B68002BFD
:1055280009D14FF0030383F31188BFF36F8FBFF3E3
:105538004F8F7B61FEE73A6913469B0013449B003B
:10554800144A1344FB60FB685B685A68FB685A603E
:10555800FB685A68FB6808339A4204D1FB685B68A9
:105568005A68FB685A60FB685B68DB680A4A136024
:10557800094B1B681B6D9BB219460848FEF794F847
:1055880000BF1837BD4680BD680900205C090020AF
:1055980050090020740800207008002000440040D2
:1055A80080B584B000AF786039607B68002B09D182
:1055B8004FF0030383F31188BFF36F8FBFF34F8F4F
:1055C800BB60FEE7194B1B6818331946786801F071
:1055D800F9FA164B1B680433184601F02DFB0346F5
:1055E800002B0BD1114B1B68DB6A012202FA03F373
:1055F800DA430F4B1B6813400D4A13603B68B3F145
:10560800FF3F07D1094B1B6804331946094801F0CD
:10561800B5FA07E0084B1A683B681344FB60F86862
:1056280000F0DEFA00BF1037BD4680BD70080020CC
:1056380050090020340900204C09002080B588B0AA
:1056480000AFF860B9607A60FB68002B09D14FF0B1
:10565800030383F31188BFF36F8FBFF34F8F7B6111
:10566800FEE7244B1B68002B09D14FF0030383F39B
:105678001188BFF36F8FBFF34F8FBB61FEE71E4BDF
:105688001B68BA6842F000429A611B4B1B681833CA
:105698001946F86801F072FA174B1B68043318466C
:1056A80001F0CAFA0346002B0BD1134B1B68DB6AC7
:1056B800012202FA03F3DA43104B1B6813400F4A26
:1056C80013607B68B3F1FF3F07D10B4B1B680433B2
:1056D80019460B4801F052FA07E00A4B1A687B6832
:1056E8001344FB61F86900F07BFA00BF2037BD4620
:1056F80080BD00BF68090020700800205009002004
:10570800340900204C09002080B586B000AF7860CD
:105718007B68DB68DB683B613B69002B09D14FF094
:10572800030383F31188BFF36F8FBFF34F8FFB60C1
:10573800FEE73B691833184601F07EFA1D4B1B68DB
:10574800002B1CD13B690433184601F075FA3B69FC
:10575800DB6A01229A40184B1B681343164A1360F0
:105768003B69DA6A13469B0013449B00134A1A44A8
:105778003B6904331946104601F000FA05E03B691D
:10578800183319460E4801F0F9F93B69DA6A0D4BEE
:105798001B68DB6A9A4205D901237B610A4B012207
:1057A8001A6001E000237B617B6918461837BD4603
:1057B80080BD00BF6809002050090020740800203F
:1057C80008090020700800205C09002080B586B018
:1057D80000AF786039602B4B1B68002B09D14FF064
:1057E800030383F31188BFF36F8FBFF34F8FBB6041
:1057F800FEE73B6843F000427B681A607B68DB6821
:105808003B613B69002B09D14FF0030383F31188F7
:10581800BFF36F8FBFF34F8FFB60FEE7786801F02F
:105828000BFA3B690433184601F006FA3B69DB6A58
:1058380001229A40144B1B681343134A13603B69B7
:10584800DA6A13469B0013449B00104A1A443B69CA
:1058580004331946104601F091F93B69DA6A0C4B9A
:105868001B68DB6A9A4205D901237B61094B012237
:105878001A6001E000237B617B6918461837BD4632
:1058880080BD00BF6809002050090020740800206E
:10589800700800205C09002080B485B000AF7860F3
:1058A8007B68002B09D14FF0030383F31188BFF302
:1058B8006F8FBFF34F8FFB60FEE7074B1A687B685B
:1058C8001A60064B1A687B685A6000BF1437BD46D9
:1058D8005DF8047B704700BF600900204C09002078
:1058E80080B586B000AF786039607B68002B09D13D
:1058F8004FF0030383F31188BFF36F8FBFF34F8F0C
:10590800BB60FEE73B68002B09D14FF0030383F32C
:105918001188BFF36F8FBFF34F8FFB60FEE700F076
:10592800F5FF1C4B1B683B613B681B68B3F1FF3FED
:1059380002D100237B6126E07B681A68164B1B683E
:105948009A4207D07B685A683B699A4202D8012379
:105958007B6118E07B685B683A69D21A3B681B6810
:105968009A420ED23B681A687B6859683B69CB1A21
:105978001A443B681A607868FFF78EFF00237B6142
:1059880001E001237B6100F0EFFF7B6918461837BF
:10599800BD4680BD4C0900206009002080B400AFDE
:1059A800034B01221A6000BFBD465DF8047B7047B7
:1059B8005C09002080B485B000AF78607B68002B5C
:1059C80005D07B68BB60BB685B6CFB6001E00023B3
:1059D800FB60FB6818461437BD465DF8047B7047CA
:1059E80080B485B000AF786039607B68002B04D044
:1059F8007B68FB60FB683A685A6400BF1437BD4691
:105A08005DF8047B704700BF80B582B000AF786056
:105A180000F0AAF8064B1B68012BF9D9054B4FF08B
:105A280080521A60BFF34F8FBFF36F8FF0E700BF4C
:105A38007408002004ED00E080B586B000AFF8607F
:105A4800B9607A603B6000237B6112E0BA687B69C9
:105A580013441978FA687B69134434330A461A7078
:105A6800BA687B6913441B78002B06D07B69013325
:105A78007B617B69092BE9D900E000BFFB68002244
:105A880083F83D207B68042B01D904237B60FB68E5
:105A98007A68DA62FB687A689A64FB680022DA64DA
:105AA800FB680433184601F05BF8FB6818331846A6
:105AB80001F056F8FB68FA681A617B68C3F10502C1
:105AC800FB689A61FB68FA685A62FB6800221A65EB
